:100000000C9462010C948A010C948A010C948A016C
:100010000C948A010C948A010C948A010C948A0134
:100020000C948A010C948A010C948A010C948A0124
:100030000C948A010C948A010C948A010C948A0114
:100040000C942D0C0C948A010C949D0C0C94770C40
:100050000C948A010C948A010C948A010C948A01F4
:100060000C948A010C948A01494E50555400535403
:100070004154455343414E004144442C31332C56A6
:1000800049525455414C5F504F5745522C55382CCE
:1000900052572C5669727475616C20506F77657277
:1000A0002C20434F4D4D2070616E656C2076697237
:1000B0007475616C20706F7765722030206F7220CC
:1000C000312C504552534953543D31004144442C46
:1000D00031322C4241434B4C494748545F425249CC
:1000E0002C55382C52572C4261636B6C69676874CD
:1000F000204272696768746E6573732C20434F4D9C
:100100004D2070616E656C206261636B6C6967681D
:1001100074206272696768746E6573732066726FAB
:100120006D203020746F203235352C5045525349A4
:1001300053543D31004144442C31312C44495350F7
:100140004C41595F4252492C55382C52572C446926
:1001500073706C6179204272696768746E6573733D
:100160002C434F4D4D206469676974732062726936
:100170006768746E6573732066726F6D20302074CB
:100180006F2031352C504552534953543D31004E68
:100190004F5F444953504C41595F434C4541523D98
:1001A000300055495F545950453D30005041474556
:1001B000535550504F52543D3100495347454E45D9
:1001C0005249433D31005049443D43465420373362
:1001D0003720434F4D4D2050414E454C0041555422
:1001E000484F523D64393233373934336637353905
:1001F000363864383165313261666631326138359E
:1002000061323430003600434654203733372043C0
:100210004F4D4D2050414E454C00363566323933F6
:1002200030362D653164372D346135352D61666486
:10023000392D323164383134363763313030005340
:1002400050414400494E5055540041545441434894
:10025000494E472043414C4C4241434B53210000FF
:10026000000000240027002A0000000000250028CC
:10027000002B0000000000230026002900040404D5
:10028000040404040402020202020203030303033F
:10029000030102040810204080010204081020011C
:1002A00002040810204F5554505554000000000817
:1002B000000201000003040700000000000000002D
:1002C000CF0C201111241FBECFEFD8E0DEBFCDBF71
:1002D00025E0A8E4B2E001C01D92A53CB207E1F719
:1002E00012E0A0E0B1E0E4E4F8E202C005900D9273
:1002F000A834B107D9F711E0C1E6D1E004C02197D5
:10030000FE010E941412C036D107C9F70E94490DA0
:100310000C9415140C940000AC0110920A039091F7
:100320005A0580915905FA01BF01641B750B209194
:100330000A03308130930A03931304C0921302C05E
:1003400010920A033081311104C0921721F0CB01C1
:1003500008953817D1F33196E7CF0F931F93CF93BA
:10036000DF9380914E05882309F446C0D0E0C0E0B9
:10037000813029F482E080934E05CEE0D3E0809175
:100380004F05882341F1209721F4C0915305D09166
:1003900054058E01CE010E948C01892B29F42196EF
:1003A000F80180818111F5CFF8018081882309F15E
:1003B000C8010E948C01F801E80FF91F8081882391
:1003C00011F010823196F0935405E0935305109389
:1003D0005205009351058091510590915205892B4A
:1003E00059F081E080934F05DF91CF911F910F91DC
:1003F000089510E000E0EBCF80E0F6CF833081F08D
:1004000028F4813099F08230A9F008958730A9F05E
:100410008830C9F08430B1F4809180008F7D03C0B2
:10042000809180008F7780938000089584B58F77C6
:1004300084BD089584B58F7DFBCF8091B0008F7708
:100440008093B00008958091B0008F7DF9CFCF9355
:10045000DF93282F30E0F901E455FD4F8491F90135
:10046000EF56FD4FD491F901E358FD4FC491CC23D1
:10047000A1F081110E94FE01EC2FF0E0EE0FFF1FB2
:10048000ED58FD4FA591B491EC91ED2381E090E002
:1004900009F480E0DF91CF91089580E090E0FACFF9
:1004A0001F93CF93DF93282F30E0F901E455FD4FE0
:1004B0008491F901EF56FD4FD491F901E358FD4FB6
:1004C000C491CC23A9F0162F81110E94FE01EC2FBC
:1004D000F0E0EE0FFF1FE759FD4FA591B4918FB7E4
:1004E000F894EC91111108C0D095DE23DC938FBFF6
:1004F000DF91CF911F910895DE2BF8CFCF93DF933B
:1005000090E0FC01EF56FD4F249183589D4FFC0174
:1005100084918823D1F090E0880F991FFC01E15A63
:10052000FD4FA591B491FC01E759FD4FC591D491C0
:10053000623071F49FB7F8943C91822F80958323A9
:100540008C93E8812E2B28839FBFDF91CF91089554
:100550008FB7F894EC912E2B2C938FBFF6CFCF93BF
:10056000DF93EC0161E08BE00E947E02209731F482
:1005700060E08BE0DF91CF910C945002CF3FD1052A
:1005800011F461E0F6CFE7EBF2E0E491E33029F11A
:1005900040F4E130B1F0E230D9F0C038D1058CF749
:1005A000E7CFE73021F1E83051F1E430B1F7809145
:1005B0008000806280938000D0938B00C0938A007B
:1005C00004C084B5806884BDC7BDDF91CF91089514
:1005D00084B5806284BDC8BDF8CF809180008068FA
:1005E00080938000D0938900C0938800EECF8091E3
:1005F000B00080688093B000C093B300E6CF8091D4
:10060000B00080628093B000C093B400DECF3FB7EB
:10061000F89480915E0290915F02A0916002B09187
:10062000610226B5A89B05C02F3F19F00196A11DB8
:10063000B11D3FBFBA2FA92F982F8827BC01CD012C
:10064000620F711D811D911D42E0660F771F881F8B
:10065000991F4A95D1F708958F929F92AF92BF92BA
:10066000CF92DF92EF92FF924B015C010E94070351
:100670006B017C010E9407036C197D098E099F099B
:10068000683E734081059105A8F321E0821A910824
:10069000A108B10888EEC80E83E0D81EE11CF11C49
:1006A00081149104A104B10429F7FF90EF90DF9029
:1006B000CF90BF90AF909F908F9008950895DC01E8
:1006C000ED91FC910190F081E02D0994EF92FF9261
:1006D0000F931F93CF93DF93209105032223E9F01B
:1006E0008C016091590580915605909157050E94A3
:1006F0005F03E0905605F0905705E801FE01649114
:10070000662359F0D701ED91FC910190F081E02D25
:10071000C70109952196892B89F7DF91CF911F9108
:100720000F91FF90EF900895CF93DF9320910503F1
:100730002223D1F0EC0160915905809156059091EA
:1007400057050E945F0380915605909157054C8193
:100750005D8168817981DC01ED91FC910280F381FA
:10076000E02DDF91CF910994DF91CF910895AF9261
:10077000BF92CF92DF92EF92FF920F931F93CF938E
:10078000DF936C017B018B01040F151FEB015E01F0
:10079000AE18BF08C017D10759F06991D601ED9185
:1007A000FC910190F081E02DC6010995892B79F724
:1007B000C501DF91CF911F910F91FF90EF90DF90D6
:1007C000CF90BF90AF900895FC01538D448D252F9D
:1007D00030E0842F90E0821B930B541710F0CF96DB
:1007E000089501970895FC01918D828D981761F00D
:1007F000A28DAE0FBF2FB11D5D968C91928D9F5F24
:100800009F73928F90E008958FEF9FEF0895FC0102
:10081000918D828D981731F0828DE80FF11D858DB5
:1008200090E008958FEF9FEF0895FC01918D228D48
:10083000892F90E0805C9F4F821B91098F739927CD
:10084000089588E692E00E94150421E0892B09F4BE
:1008500020E0822F089580E090E0892B29F00E940B
:10086000210481110C9400000895FC01A48DA80FAF
:10087000B92FB11DA35ABF4F2C91848D90E00196E2
:100880008F739927848FA689B7892C93A089B18902
:100890008C91837080648C93938D848D981306C0A3
:1008A0000288F389E02D80818F7D80830895EF9207
:1008B000FF920F931F93CF93DF93EC0181E0888F1A
:1008C0009B8D8C8D98131AC0E889F989808185FFEA
:1008D00015C09FB7F894EE89FF896083E889F9898C
:1008E00080818370806480839FBF81E090E0DF918E
:1008F000CF911F910F91FF90EF900895F62E0B8DE1
:1009000010E00F5F1F4F0F731127E02E8C8D8E119B
:100910000CC00FB607FCFACFE889F989808185FF02
:10092000F5CFCE010E943504F1CFEB8DEC0FFD2FFA
:10093000F11DE35AFF4FF0829FB7F8940B8FEA89BD
:10094000FB8980818062CFCFCF93DF93EC01888DCC
:100950008823B9F0AA89BB89E889F9898C9185FD3A
:1009600003C0808186FD0DC00FB607FCF7CF8C91C8
:1009700085FFF2CF808185FFEDCFCE010E94350447
:10098000E9CFDF91CF9108959F92AF92BF92CF921E
:10099000DF92EF92FF920F931F93CF93DF93A82ED6
:1009A000C62E9090510260E0892D0E94500208E00E
:1009B00010E030E8E32EF12CB12CD0915302C501A8
:1009C0008E219F2161E0892B09F460E08D2F0E9428
:1009D0005002C0914F0261E08C2F0E94500260E0F3
:1009E0008C2F0E945002F594E7940150110929F7C9
:1009F00008E010E090E8E92EF12CD12CC6018E2100
:100A00009F2161E0892B09F460E08D2F0E94500244
:100A100061E08C2F0E94500260E08C2F0E945002F7
:100A2000F594E7940150110949F761E0892DDF91B0
:100A3000CF911F910F91FF90EF90DF90CF90BF90DB
:100A4000AF909F900C9450020F931F93CF93DF931E
:100A500086E090E090934C0280934B0210924A0201
:100A600010924902C0914B02D0914C0280916602D3
:100A700090916702C530D10524F10091490210918F
:100A80004A020817190730F4E0916202F0916302FC
:100A90003097A1F410924802E8E4F2E060818C2FD4
:100AA0000E94C4040F5F1F4F10934A020093490233
:100AB0002197D0934C02C0934B02D4CFE00FF11F8B
:100AC000EDCF24E030E030934C0220934B0222E043
:100AD00030E030934A0220934902039738F0E091C6
:100AE0006202F0916302309709F03FC01092480211
:100AF000E8E4F2E06081605884E00E94C40483E08E
:100B000090E090934C0280934B0290934A02809322
:100B10004902C0914B02D0914C021C161D0654F59F
:100B20000091490210914A028091660290916702F9
:100B30000817190730F4E0916202F09163023097D0
:100B4000B1F410924802E8E4F2E060818C2F0E9438
:100B5000C4040F5F1F4F10934A020093490221976C
:100B6000D0934C02C0934B02D4CF3296C3CFE00F48
:100B7000F11FEBCFDF91CF911F910F9108950E944C
:100B8000AD01882359F081E080934F058093500593
:100B900080915105909152050C944211109250058C
:100BA00060E070E0CB010895CF92DF92EF92FF9268
:100BB0000E94BF056B017C018FEFC816D104E104D0
:100BC000F10409F038F4C6010E94AF02D0920F017F
:100BD000C0920E01FF90EF90DF90CF900895FB013F
:100BE00001900020E9F73197AF01461B570BDC015C
:100BF000ED91FC910280F381E02D09948091050331
:100C00008823A1F060915805809156059091570571
:100C10000E945F0380910D03882341F068E471E036
:100C200080915605909157050E94EF0510920C0394
:100C30001092050380E008958F929F92AF92BF9229
:100C4000EF92FF920F931F93CF93DF93CDB7DEB751
:100C5000A1970FB6F894DEBF0FBECDBF7C01FA019D
:100C6000CB0119A2223008F42AE08E010F5D1F4F3C
:100C7000822E912CB12CA12CBF01A50194010E94C0
:100C8000F211F901CA016A300CF5605DD8016E936A
:100C90008D01232B242B252B79F790E080E01097F2
:100CA00021F0BD01C7010E94EF05A1960FB6F8948F
:100CB000DEBF0FBECDBFDF91CF911F910F91FF908F
:100CC000EF90BF90AF909F908F900895695CDECFBA
:100CD00090910503911110C091E0909305039093BA
:100CE0000C03482F50E070E060E02AE08091560548
:100CF000909157050C941C060895CF93DF93909123
:100D0000050391110AC0EB010E946806CE010E9402
:100D10006603DF91CF910C94FE0580E0DF91CF91C7
:100D20000895CF92DF92EF92FF92CF93DF932091BD
:100D30000503222359F16C016091590580915605F4
:100D4000909157050E945F03C0915605D0915705B9
:100D50000D2C000CEE08FF082AE0B701A601F7FEF3
:100D60000CC06DE2CE010E945F0344275527BA01F3
:100D70004C195D096E097F092AE0CE01DF91CF9100
:100D8000FF90EF90DF90CF900C941C06DF91CF91F5
:100D9000FF90EF90DF90CF900895CF92DF92EF9287
:100DA000FF920E94BF056B017C0180E1C816D1044F
:100DB000E104F10480F4D0921101C09210018091FD
:100DC0000503811108C083E00E946806C6010E94E5
:100DD00091060E94FE0587E090E090935402809374
:100DE000530286E090E0909352028093510288E093
:100DF00090E09093500280934F02F09010016F2D7D
:100E00008AE00E94C4048AE090E0909354028093A8
:100E1000530289E090E090935202809351028CE05B
:100E200090E09093500280934F026F2D8AE0FF90E4
:100E3000EF90DF90CF900C94C404CF93DF93209178
:100E40000503222391F0EC0160915905809156052C
:100E5000909157050E945F03BE01809156059091C5
:100E60005705DF91CF910C94EF05DF91CF91089555
:100E7000CF93DF939091050391110AC0EB010E947B
:100E80006806CE010E941D07DF91CF910C94FE05EC
:100E900080E0DF91CF9108956BE471E083E00C94E2
:100EA0003807CF93DF930E94AD018823B1F081E032
:100EB00080934F0580935005C0915105D091520504
:100EC0006BE571E0CE010E940514892B59F481E095
:100ED00080935802DF91CF91089510925005D0E091
:100EE000C0E0EECF61E671E0CE010E940514892BCF
:100EF00089F710925802EECF0F931F93CF93DF9391
:100F0000EC0188819981009759F02A813B8126174D
:100F1000370730F081E0DF91CF911F910F91089555
:100F20008B016F5F7F4F0E943F13009759F09983A9
:100F300088831B830A832C813D81232B59F7FC0175
:100F40001082E8CF80E0E7CFEF92FF920F931F93DC
:100F5000CF93DF9341155105B1F07B01EC010C817A
:100F60001D81040F151FB8010E947C07882361F0C2
:100F7000288139818C819D81B701820F931F0E9446
:100F80000E141D830C8381E0DF91CF911F910F918F
:100F9000FF90EF900895EF92FF920F931F93CF93DE
:100FA000DF93CDB7DEB728970FB6F894DEBF0FBE3C
:100FB000CDBF7C01CB014AE08E010F5F1F4FB8010E
:100FC0000E946911F80101900020E9F73197AF0103
:100FD000401B510BB801C7010E94A40728960FB609
:100FE000F894DEBF0FBECDBFDF91CF911F910F915F
:100FF000FF90EF900895EF92FF920F931F93CF937E
:10100000DF9300D000D0CDB7DEB77C01862F4AE059
:101010008E010F5F1F4FB80190E00E946911F80127
:1010200001900020E9F73197AF01401B510BB80147
:10103000C7010E94A4070F900F900F900F90DF91AF
:10104000CF911F910F91FF90EF900895CF93DF9371
:10105000EC0188819981009711F00E94B6121982E3
:1010600018821D821C821B821A82DF91CF91089503
:10107000EF92FF920F931F93CF93DF93EC018617AC
:10108000970781F0FB01008111810115110539F0ED
:10109000E480F580B7010E947C0781110BC0CE016E
:1010A0000E942608CE01DF91CF911F910F91FF90F2
:1010B000EF900895FD82EC82B801888199810E94A9
:1010C0000E14F0CFFC01118210821382128215825D
:1010D00014820C943808EF92FF920F931F93CF93D2
:1010E000DF93EC01198218821B821A821D821C82F6
:1010F0006115710521F18B01FB0101900020E9F7D9
:1011000031977F01E61AF70AB7010E947C07811127
:1011100009C0CE01DF91CF911F910F91FF90EF9009
:101120000C942608FD82EC82B80188819981DF91B8
:10113000CF911F910F91FF90EF900C940E14DF91BF
:10114000CF911F910F91FF90EF900895FC01808146
:101150009181009711F00C94B6120895EF92FF92CE
:101160000F931F93CF93DF93CDB7DEB72C970FB6B6
:10117000F894DEBF0FBECDBF7C018B0180E00E94E2
:10118000680685EA92E00E946603C7010E94910604
:10119000B801CE0101960E946208CE0101960E941C
:1011A0009403CE0101960E94A6088AE691E00E946F
:1011B0001D0785E691E00E941D0762E771E0CE0100
:1011C00007960E946B0866E070E0CE0107960E94C9
:1011D000CB07BE01695F7F4FCE0101960E94620876
:1011E000CE0101960E949403CE0101960E94A608AA
:1011F0008AE791E00E941D0781E891E00E941D07A7
:101200008DE891E00E941D0787E991E00E941D078B
:1012100081EA91E00E941D070E94FE05CE0107961B
:101220000E94A6082C960FB6F894DEBF0FBECDBF65
:10123000DF91CF911F910F91FF90EF900895CF9282
:10124000DF92EF92FF92CF93DF9300D000D000D0D7
:10125000CDB7DEB70E94BF056B017C010E94BF05C0
:101260000E94BF050E94AD01882309F44EC081E0B1
:1012700080934F0580935005609151057091520500
:10128000CE0101960E946B0881E0C816D104E104EA
:10129000F10409F05DC08AE090E0909354028093DD
:1012A000530289E090E090935202809351028CE0C7
:1012B00090E09093500280934F028D819E81892B04
:1012C00049F162E472E089819A810E940514892BB8
:1012D00009F561E089E00E94500260E08CE00E9424
:1012E000500260E08FE00E94C40460E08CE00E9445
:1012F000C4046FEF89E00E94C404609110018AE089
:101300000E94C40467E08BE007C01092500570E0B3
:1013100060E0B6CF61E08CE00E94C404BE016F5F64
:101320007F4F82E692E00E9438080E942405CE0199
:1013300001960E94A60826960FB6F894DEBF0FBE4F
:10134000CDBFDF91CF91FF90EF90DF90CF900895C8
:1013500082E0C816D104E104F10449F787E090E087
:10136000909354028093530286E090E0909352024F
:101370008093510288E090E09093500280934F0256
:101380008D819E81892B31F262E472E089819A819C
:101390000E940514892B09F0BDCF61E086E00E9410
:1013A000500260E088E09BCFAF92BF92CF92DF9275
:1013B000EF92FF920F931F93CF93DF9300D000D053
:1013C00000D0CDB7DEB75C016B017A01890180E006
:1013D0000E94680684E492E00E946603C5010E94B0
:1013E0009106B601CE0101960E946208CE010196D7
:1013F0000E949403CE0101960E94A608B701CE0177
:1014000001960E946208CE0101960E949403CE01CB
:1014100001960E94A608B801CE0101960E946208BA
:10142000CE0101960E949403CE0101960E94A60867
:101430000E94FE0526960FB6F894DEBF0FBECDBF04
:10144000DF91CF911F910F91FF90EF90DF90CF90A0
:10145000BF90AF900895CF92DF92EF92FF920F93DB
:101460001F93CF93DF93CDB7DEB768970FB6F8948D
:10147000DEBF0FBECDBF0E94AD01882381F181E0A8
:1014800080934F05809350050091510510915205AE
:101490006DEA71E0C8010E940514892B29F580E0EE
:1014A0000E9468068FE392E00E9466038AE192E060
:1014B0000E94660387E092E00E94660382E090E06B
:1014C0000E94910685E092E00E9466038DED91E016
:1014D0000E94660386EC91E00E9466033CC0109275
:1014E000500510E000E0D4CF62EB71E0C8010E942B
:1014F0000514892B09F040C080E00E94680687EB44
:1015000091E00E941D070E94BF056B017C01809144
:101510000503882301F1609159058091560590914A
:1015200057050E945F0300915605109157052AE068
:10153000B701A601F7FE0CC06DE2C8010E945F036F
:1015400044275527BA014C195D096E097F092AE025
:10155000C8010E941C060E94FE0568960FB6F8940A
:10156000DEBF0FBECDBFDF91CF911F910F91FF90D6
:10157000EF90DF90CF9008956CEB71E0C8010E946E
:101580000514892B09F04EC180E00E94680683ECA7
:1015900091E00E941D078AEB91E00E9466038CEAAD
:1015A00091E00E94660382EA91E00E9466038FE860
:1015B00091E00E9466030E94FE0565E371E081E010
:1015C0000E947D0662E370E080E090E00E942C03C0
:1015D0006CEC70E081E00E947D0662E370E080E0E8
:1015E00090E00E942C0368E770E081E00E947D0695
:1015F00062E370E080E090E00E942C036AEC71E00E
:10160000CE010D960E946B086FEC71E0CE0107963B
:101610000E946B086AED71E0CE0101960E946B0892
:101620009E01235F3F4FAE01495F5F4FBE016F5F79
:101630007F4F81E090E00E94D409CE0101960E9484
:10164000A608CE0107960E94A608CE010D960E941C
:10165000A6086AEC71E0CE010D960E946B086FEC53
:1016600071E0CE0107960E946B0867EE71E0CE0133
:1016700001960E946B089E01235F3F4FAE01495FB8
:101680005F4FBE016F5F7F4F82E090E00E94D40900
:10169000CE0101960E94A608CE0107960E94A608D8
:1016A000CE010D960E94A6086AEC71E0CE010D965F
:1016B0000E946B086FEC71E0CE0107960E946B08E8
:1016C0006BEE71E0CE0101960E946B089E01235FD4
:1016D0003F4FAE01495F5F4FBE016F5F7F4F83E0B9
:1016E00090E00E94D409CE0101960E94A608CE0186
:1016F00007960E94A608CE010D960E94A60860EFEC
:1017000071E0CE0143960E946B086CEF71E0CE0150
:101710000D960E946B0864E072E0CE0107960E946D
:101720006B0880E00E94680688E690E00E946603ED
:1017300080910503882399F06091590580915605A1
:10174000909157050E945F032AE045E650E060E073
:1017500070E080915605909157050E941C06BE01CD
:10176000695F7F4FCE0101960E946208CE0101960B
:101770000E949403CE0101960E94A608BE01635FF9
:101780007F4FCE0101960E946208CE0101960E9411
:101790009403CE0101960E94A608BE016D5E7F4FA4
:1017A000CE0101960E946208CE0101960E94940328
:1017B000CE0101960E94A6080E94FE05CE01079662
:1017C0000E94A608CE010D960E94A608CE0143965F
:1017D0000E94A6086EE072E0CE0101960E946B089E
:1017E000BE016F5F7F4F81E090E00E94AE08CE01A6
:1017F00001960E94A60865E172E0CE0101960E9462
:101800006B08BE016F5F7F4F82E090E00E94AE08E0
:10181000CE0101960E94A6086CEB71E080E00E9468
:10182000380799CE6DE172E0C8010E940514892B3A
:1018300049F481E08093580280E00E9468068EE6B9
:1018400090E04ACE61E671E0C8010E940514892B40
:1018500009F083CE1092580280CE1F920F920FB6DD
:101860000F9211242F933F938F939F93AF93BF9326
:1018700080915A0290915B02A0915C02B0915D024E
:101880003091590223E0230F2D3758F50196A11D01
:10189000B11D2093590280935A0290935B02A0934A
:1018A0005C02B0935D0280915E0290915F02A09114
:1018B0006002B09161020196A11DB11D80935E028C
:1018C00090935F02A0936002B0936102BF91AF91C9
:1018D0009F918F913F912F910F900FBE0F901F906E
:1018E000189526E8230F0296A11DB11DD2CF1F9295
:1018F0000F920FB60F9211242F933F934F935F9344
:101900006F937F938F939F93AF93BF93EF93FF93C7
:1019100088E692E00E943504FF91EF91BF91AF916C
:101920009F918F917F916F915F914F913F912F91F7
:101930000F900FBE0F901F9018951F920F920FB629
:101940000F9211242F938F939F93EF93FF93E09126
:101950007802F09179028081E0917E02F0917F021D
:1019600082FD1BC09081809181028F5F8F732091D7
:101970008202821741F0E0918102F0E0E859FD4FC8
:10198000958F80938102FF91EF919F918F912F917D
:101990000F900FBE0F901F9018958081F4CF10927A
:1019A0006B0210926A0288EE93E0A0E0B0E08093B0
:1019B0006C0290936D02A0936E02B0936F028AE363
:1019C00091E0909369028093680285EC90E0909397
:1019D00075028093740284EC90E090937702809378
:1019E000760280EC90E0909379028093780281EC0B
:1019F00090E090937B0280937A0282EC90E0909347
:101A00007D0280937C0286EC90E090937F0280932D
:101A10007E02109281021092820210928302109232
:101A2000840210925C0510925B0588E692E0909328
:101A300057058093560510920D038CE2809359054B
:101A40008BE3809358058FE280935A0580E480935E
:101A500008038FE380930903109207031092520545
:101A600010925105109254051092530581E0809315
:101A70004F05EDE5F5E01192119285E0E13CF807A4
:101A8000D1F710920C036AE471E082E692E00C94C4
:101A90006B08CF93DF93CDB7DEB762970FB6F8949C
:101AA000DEBF0FBECDBF789484B5826084BD84B59F
:101AB000816084BD85B5826085BD85B5816085BD49
:101AC00080916E00816080936E0010928100809101
:101AD0008100826080938100809181008160809389
:101AE0008100809180008160809380008091B100AE
:101AF00084608093B1008091B00081608093B000D9
:101B000080917A00846080937A0080917A0082606C
:101B100080937A0080917A00816080937A0080912E
:101B20007A00806880937A001092C10081E090E092
:101B300090934E0280934D0217E0412E512C06E007
:101B4000602E712C88E0E82EF12C9AE0C92ED12C61
:101B500029E0A22EB12C3CE0832E912C00914D0265
:101B600010914E02033011050CF42CC262E08091FA
:101B700000010E947E0262E0809101010E947E02CB
:101B800062E0809107010E947E0262E0809108017C
:101B90000E947E02E0917802F091790282E08083D7
:101BA000E0917402F09175021082E0917602F0915A
:101BB000770280E1808310928002E0917C02F091B4
:101BC0007D0286E08083E0917A02F0917B02808141
:101BD00080618083E0917A02F0917B02808188604D
:101BE0008083E0917A02F0917B028081806880831B
:101BF000E0917A02F0917B0280818F7D80836AE49C
:101C000072E083E00E947D068BE29AE090935E058D
:101C100080935D0581E597E090936205809361056F
:101C20008CE497E090936405809363058FE199E0DD
:101C300090936C0580936B058DEC96E09093740502
:101C40008093730584ED95E09093760580937505F8
:101C50008EE593E0909378058093770561E08BE0C3
:101C60000E947E0280910E0190910F010E94AF02AE
:101C700062E081E10E947E0262E082E10E947E02D7
:101C800062E083E10E947E0280915802882309F479
:101C9000F6C060E0C62E61E0D62EF12CE12C79E092
:101CA000272E312CECE04E2E512CF7E06F2E712CAC
:101CB000A6E0AA2EB12CB8E08B2E912CD60111965D
:101CC0008C910E9427028C01F60180810E942702DC
:101CD000F7E0FE9DD001FF9DB00D1124A050BF4F35
:101CE0001696EC911697EF70000F111F082B24E049
:101CF000E29FF0011124E85EFE4FE00FF11D8081AC
:101D000016968C93169716968C918073803109F0F5
:101D1000D6C1E114F10409F0B7C167E272E088E0CE
:101D20000E94380783E10E942702892BA1F50091C8
:101D30001001109111010F3011053CF50F5F1F4F7D
:101D400010931101009310018AE090E090935402E7
:101D500080935302309252022092510250925002CC
:101D600040924F02602F0E94C4047092540260920D
:101D70005302B0925202A09251029092500280926D
:101D80004F02602F8AE00E94C40465E070E080E0AA
:101D900090E00E942C036AE070E080E090E00E94F6
:101DA0002C03B7E0CB0ED11CEA94EF2809F068C1F0
:101DB00000E311E035E5E32E32E0F32ED801119671
:101DC0008C910E942702F70120812817190609F437
:101DD0004CC0D801DC902111B7C1B1E0B0836AE4F6
:101DE00071E0CE010D960E946B086D2DCE010D960F
:101DF0000E94FB0741E050E065E472E0CE010D96E1
:101E00000E94A40770E060E0CE010D960E94CB070F
:101E1000BE01635F7F4FCE0107960E9462088091EA
:101E20000503811114C088E00E946806BE01695F45
:101E30007F4FCE0101960E946208CE0101960E945A
:101E40009403CE0101960E94A6080E94FE05CE01D1
:101E500007960E94A608CE010D960E94A60869E189
:101E600070E080E090E00E942C030E5F1F4FFFEFB8
:101E7000EF1AFF0A21E00633120709F09FCF809185
:101E80000C038111C9C18091560590915705DC0161
:101E9000ED91FC910084F185E02D0995892B09F4E1
:101EA000BBC18091560590915705DC01ED91FC91E5
:101EB0000084F185E02D0995E12C22E0F22E8115B8
:101EC000924064F48091560590915705DC01ED91A4
:101ED000FC910084F185E02D09957C010091560567
:101EE000109157059EE4A92E93E0B92E6501912C1F
:101EF000812CE814F90409F03EC110E000E0E0167E
:101F0000F10609F4BCCFD5019D915D0110924E05FB
:101F100030915A0520910B0390930B03931304C047
:101F2000921302C010920B0380910703E82FF0E098
:101F300040915805EB5FFC4F941355C1321709F4DB
:101F400052C11186882329F0B1E0B0934E0510925A
:101F50000B03109207031092520510925105109234
:101F6000540510925305E1E0E0934F05D0904E05E3
:101F7000F1E0DF124EC10E94AD01882309F43DC19A
:101F8000D0924F05D0925005809151059091520505
:101F90000E94241180930603823308F033C12091FC
:101FA0005005222309F42EC1FC01FF27EE0FFF1F6D
:101FB000E35AFA4F0190F081E02D309709F422C1E5
:101FC000099527C10130110509F049C0D09254028A
:101FD000C0925302B0925202A092510290925002CB
:101FE00080924F0261E0809153020E947E02209015
:101FF000510261E0822D0E947E0230904F0261E02A
:10200000832D0E947E0261E0822D0E94500260E0DA
:10201000832D0E94500260E08FE00E94C40461E0C2
:102020008CE00E94C4046FEF89E00E94C4046091B8
:1020300010018AE00E94C40467E08BE00E94C4049F
:102040006FE081E00E94C4046FE082E00E94C4045B
:102050000F5F1F4F10934E0200934D027FCD023051
:10206000110509F0BFCF5092540240925302709272
:10207000520260925102F0925002E0924F02B2CFAF
:10208000EE24E394F12C1ACE6FE272E088E00E9415
:10209000380783E10E942702892B09F07CCE8091CA
:1020A0000E0190910F01813F91050CF06ECE0F96BD
:1020B00090930F0180930E010E94AF0266CE803292
:1020C00009F06FCEE114F10451F565E372E088E0A8
:1020D0000E94380783E10E942702892B09F05BCE1A
:1020E0000091100110911101101611060CF04DCE47
:1020F000015011091093110100931001AAE0B0E002
:10210000B0935402A0935302309252022092510293
:102110005092500240924F02602F8AE024CE6EE32C
:1021200072E088E00E94380783E10E942702892B31
:1021300009F02BCE80910E0190910F018F30910507
:102140000CF423CE0F97B4CF10826AE471E0CE0175
:102150000D960E946B086D2DCE010D960E94FB0717
:1021600041E050E065E472E0CE010D960E94A407C4
:1021700061E070E049CE2FB7F89480915A029091B7
:102180005B02A0915C02B0915D022FBFF8018087D5
:102190009187A287B387D801ED91FC910284F385E2
:1021A000E02DC801099597FF44C02FB7F89480919E
:1021B0005A0290915B02A0915C02B0915D022FBF28
:1021C000F8014085518562857385841B950BA60BAC
:1021D000B70B448155816681778184179507A607DF
:1021E000B707C8F28ACE91878F5F809307039091DB
:1021F0000903891708F0ADCEB9CE1092500590E0D2
:1022000080E0C8CEE0915B05F0915C05309709F065
:10221000D7CE0F5F1F4F73CE80E090E0892B09F47B
:1022200033CD0E942104882309F42ECD0E940000A2
:102230002BCDD6018D936D01BFEF8B1A9B0A59CE22
:1022400082E692E00C94A608FC0188279927E8947E
:1022500021912032E9F3293010F02E30C8F32B32CF
:1022600041F02D3239F4689404C00E948911820F24
:10227000911D219120532A30C0F31EF49095819531
:102280009F4F08951F93FC0199278827BC01E8946C
:1022900011911032E9F3193010F01E30C8F31B32DF
:1022A00051F01D3249F4689406C00E947411610F08
:1022B000711D811D911D119110531A30B0F33EF420
:1022C00090958095709561957F4F8F4F9F4F1F918F
:1022D0000895BB274A3031F4992322F4BDE290954A
:1022E00081959F4F0C949211592F482F372F262FED
:1022F000660F771F881F991F660F771F881F991F0A
:10230000620F731F841F951F660F771F881F991F09
:1023100008957AE0979F902D879F802D910D11242D
:102320000895BB27FB015527AA27880F991FAA1FCD
:10233000A41710F0A41B83955051B9F7A05DAA33E0
:1023400008F0A95DA193009779F7B111B1931192AB
:10235000CB010C94AB11DC01FC01672F7191772349
:10236000E1F7329704C07C916D9370836291AE1750
:10237000BF07C8F308952F923F924F925F926F92DA
:102380007F928F929F92AF92BF92CF92DF92EF9205
:10239000FF920F931F93CF93DF93CDB7DEB7CA1B86
:1023A000DB0B0FB6F894DEBF0FBECDBF09942A88B1
:1023B000398848885F846E847D848C849B84AA8459
:1023C000B984C884DF80EE80FD800C811B81AA81E6
:1023D000B981CE0FD11D0FB6F894DEBF0FBECDBFB1
:1023E000ED010895A1E21A2EAA1BBB1BFD010DC031
:1023F000AA1FBB1FEE1FFF1FA217B307E407F507B5
:1024000020F0A21BB30BE40BF50B661F771F881F90
:10241000991F1A9469F760957095809590959B0126
:10242000AC01BD01CF010895EE0FFF1F0590F4919F
:10243000E02D09940F931F93CF93DF938230910582
:1024400010F482E090E0E091C305F091C40530E023
:1024500020E0B0E0A0E0309799F42115310509F4AF
:102460004AC0281B390B24303105D8F58A819B815D
:102470006115710589F1FB0193838283FE0111C00F
:10248000408151810281138148175907E0F04817B4
:10249000590799F4109761F012960C9312971396BE
:1024A0001C933296CF01DF91CF911F910F91089528
:1024B0000093C3051093C405F4CF2115310551F0E5
:1024C0004217530738F0A901DB019A01BD01DF0172
:1024D000F801C1CFEF01F9CF9093C4058093C305F4
:1024E000CDCFFE01E20FF31F81939193225031096A
:1024F00039832883D7CF2091C1053091C205232B82
:1025000041F420911401309115013093C2052093BC
:10251000C10520911201309113012115310541F4BB
:102520002DB73EB74091160150911701241B350B72
:10253000E091C105F091C205E217F307A0F42E1B4C
:102540003F0B2817390778F0AC014E5F5F4F241717
:10255000350748F04E0F5F1F5093C2054093C105E9
:10256000819391939FCFF0E0E0E09CCFCF93DF93F6
:102570000097E9F0FC01329713821282A091C30503
:10258000B091C405ED0130E020E01097A1F4208166
:102590003181820F931F2091C1053091C205281708
:1025A000390709F061C0F093C205E093C105DF91DE
:1025B000CF910895EA01CE17DF07E8F54A815B81E4
:1025C0009E0141155105B1F7E901FB83EA83499169
:1025D0005991C40FD51FEC17FD0761F480819181DB
:1025E0000296840F951FE9019983888382819381E4
:1025F0009B838A83F0E0E0E012968D919C91139783
:102600000097B9F52D913C911197CD010296820F5B
:10261000931F2091C1053091C2052817390739F65B
:10262000309751F51092C4051092C305B093C205BE
:10263000A093C105BCCFD383C28340815181840F55
:10264000951FC817D90761F44E5F5F4F8881998144
:10265000480F591F518340838A819B8193838283D2
:102660002115310509F0B0CFF093C405E093C305FF
:102670009ECFFD01DC01C0CF13821282D7CFB0E024
:10268000A0E0E5E4F3E10C94BD118C01009751F456
:10269000CB010E941A128C01C801CDB7DEB7E0E170
:1026A0000C94D911FC01E60FF71F9C01225031094F
:1026B000E217F30708F49DC0D901CD91DC91119781
:1026C000C617D70798F0C530D10530F3CE0104976F
:1026D0008617970708F3C61BD70B2297C193D19390
:1026E0006D937C93CF010E94B612D6CF5B01AC1ADA
:1026F000BD0A4C018C0E9D1EA091C305B091C4056E
:10270000512C412CF12CE12C109731F58091C10511
:102710009091C2058815990509F05CC046165706C8
:1027200008F058C08091120190911301009741F474
:102730008DB79EB74091160150911701841B950BE0
:10274000E817F90708F055C0F093C205E093C105FA
:10275000F90171836083A0CF8D919C91119712969E
:102760006C90129713967C901397A815B90559F59C
:102770006C0142E0C40ED11CCA14DB0420F1AC0190
:102780004A195B09DA011296159780F0628273820A
:1027900051834083D9016D937C93E114F10471F06E
:1027A000D7011396FC93EE93129776CF22968C0F57
:1027B0009D1FF90191838083F301EFCFF093C4054E
:1027C000E093C30569CF4816590608F42C017D0132
:1027D000D3019ACFCB010E941A127C01009749F0D5
:1027E000AE01B8010E94FC13C8010E94B612870115
:1027F00053CF10E000E050CFFB01DC0102C001909C
:102800000D9241505040D8F70895FB01DC018D91A5
:10281000019080190110D9F3990B0895FB01DC0197
:1028200001900D920020E1F7089511E0C1E6D1E09A
:1028300004C0FE010E9414122196C236D107C9F7C6
:04284000F894FFCF3A
:1028440002030100FFFF00040564009CFF00FF0079
:1028540005000000C505800003020100130001000B
:1028640023020000030504000303042003050310EE
:10287400011102120313000000005704B703E4031C
:10288400A4041504F30307040D0A00554E4B4E4FE0
:10289400574E20434F4D4D414E44005354415254E2
:1028A40000454E4400535041445F444953504C4109
:1028B40059004C454E4754483D00524F57533D3103
:1028C400004E4F50414444494E473D31005749441E
:1028D40054483D313333004845494748543D34302A
:1028E40000464F4E5453495A453D343000494E49F1
:1028F400540050494E4700504F4E4700434F4E46F8
:102904004947004F5054494F4E00535041445F5083
:10291400555348425554544F4E00454E434F444539
:10292400525F505553480054465200544553540086
:10293400535041445F444F55424C455F454E434FCD
:1029440044455200454E434F4445525F3100414394
:1029540054495645005354414E444259005343414F
:102964004E5354415445003130312C313030003114
:1029740030312C31003130312C2D313030003130B8
:08298400312C2D31002C000064
:00000001FF
