:100000000C94D0000C94F8000C94F8000C94F800B8
:100010000C94F8000C94F8000C94F8000C94F80080
:100020000C94F8000C94F8000C94F8000C94F80070
:100030000C94F8000C94F8000C94F8000C94F80060
:100040000C94160B0C94F8000C94E40A0C94BE0A61
:100050000C94F8000C94F8000C94F8000C94F80040
:100060000C94F8000C94F800494E50555400535429
:100070004154455343414E004E4F5F444953504C09
:1000800041595F434C4541523D310055495F5459F8
:1000900050453D300050414745535550504F525404
:1000A0003D3100495347454E455249433D3100419A
:1000B0003D6439323337393433663735393638644D
:1000C00038316531326166663132613835613234DA
:1000D00030003200434F4D4D20526164696F20461D
:1000E0004F202D20436F726520466C69676874202D
:1000F000546563680036356632393330362D6531E4
:1001000064372D346135352D616664392D323164A3
:100110003831343637633130300053504144004970
:100120004E5055540000000000240027002A000013
:10013000000000250028002B0000000000230026FE
:10014000002900040404040404040402020202025C
:10015000020303030303030102040810204080018B
:1001600002040810200102040810204154544143A5
:1001700048494E472043414C4C4241434B53210098
:100180000000000800020100000304070000000056
:10019000000000004F55545055540000600B3E0FB6
:1001A00011241FBECFEFD8E0DEBFCDBF25E0A6E40F
:1001B000B2E001C01D92A33CB207E1F712E0A0E05B
:1001C000B1E0E0E8F4E202C005900D92A634B10778
:1001D000D9F710E0CFECD0E004C02197FE010E94D7
:1001E0003210CE3CD107C9F70E94DA0B0C943312BF
:1001F0000C940000AC011092080390915805809176
:100200005705FA01BF01641B750B2091080330816B
:1002100030930803931304C0921302C01092080392
:100220003081311104C0921721F0CB0108953817A5
:10023000D1F33196E7CF0F931F93CF93DF93809144
:100240004C05882309F446C0D0E0C0E0813029F491
:1002500082E080934C05CCE0D3E080914D0588236B
:1002600041F1209721F4C0915105D09152058E01A2
:10027000CE010E94FA00892B29F42196F801808191
:100280008111F5CFF8018081882309F1C8010E940E
:10029000FA00F801E80FF91F8081882311F010821D
:1002A0003196F0935205E093510510935005009359
:1002B0004F0580914F0590915005892B59F081E0B1
:1002C00080934D05DF91CF911F910F91089510E01C
:1002D00000E0EBCF80E0F6CFDC01ED91FC910190E6
:1002E000F081E02D0994EF92FF920F931F93CF932B
:1002F000DF93209103032223E9F08C0160915705DD
:1003000080915405909155050E946C01E090540530
:10031000F0905505E801FE016491662359F0D7017C
:10032000ED91FC910190F081E02DC7010995219696
:10033000892B89F7DF91CF911F910F91FF90EF905B
:100340000895CF93DF93209103032223D1F0EC0192
:100350006091570580915405909155050E946C015C
:1003600080915405909155054C815D81688179811A
:10037000DC01ED91FC910280F381E02DDF91CF91C2
:100380000994DF91CF910895AF92BF92CF92DF92FF
:10039000EF92FF920F931F93CF93DF936C017B013A
:1003A0008B01040F151FEB015E01AE18BF08C017CB
:1003B000D10759F06991D601ED91FC910190F0813E
:1003C000E02DC6010995892B79F7C501DF91CF9101
:1003D0001F910F91FF90EF90DF90CF90BF90AF9063
:1003E0000895FC01538D448D252F30E0842F90E03B
:1003F000821B930B541710F0CF9608950197089520
:10040000FC01918D828D981761F0A28DAE0FBF2FE8
:10041000B11D5D968C91928D9F5F9F73928F90E03E
:1004200008958FEF9FEF0895FC01918D828D9817AD
:1004300031F0828DE80FF11D858D90E008958FEFEA
:100440009FEF0895FC01918D228D892F90E0805CB3
:100450009F4F821B91098F739927089586E692E03A
:100460000E94220221E0892B09F420E0822F0895C6
:1004700080E090E0892B29F00E942E0281110C94DB
:1004800000000895FC01A48DA80FB92FB11DA35A37
:10049000BF4F2C91848D90E001968F739927848FA4
:1004A000A689B7892C93A089B1898C9183708064C7
:1004B0008C93938D848D981306C00288F389E02D68
:1004C00080818F7D80830895EF92FF920F931F9319
:1004D000CF93DF93EC0181E0888F9B8D8C8D9813F7
:1004E0001AC0E889F989808185FF15C09FB7F89403
:1004F000EE89FF896083E889F9898081837080644F
:1005000080839FBF81E090E0DF91CF911F910F9199
:10051000FF90EF900895F62E0B8D10E00F5F1F4FA8
:100520000F731127E02E8C8D8E110CC00FB607FCB7
:10053000FACFE889F989808185FFF5CFCE010E9445
:100540004202F1CFEB8DEC0FFD2FF11DE35AFF4F6F
:10055000F0829FB7F8940B8FEA89FB8980818062D3
:10056000CFCFCF93DF93EC01888D8823B9F0AA8990
:10057000BB89E889F9898C9185FD03C0808186FD5E
:100580000DC00FB607FCF7CF8C9185FFF2CF8081AD
:1005900085FFEDCFCE010E944202E9CFDF91CF91DE
:1005A0000895833081F028F4813099F08230A9F0E9
:1005B00008958730A9F08830C9F08430B1F4809173
:1005C00080008F7D03C0809180008F7780938000B2
:1005D000089584B58F7784BD089584B58F7DFBCF52
:1005E0008091B0008F778093B00008958091B00023
:1005F0008F7DF9CFCF93DF93282F30E0F901E058BA
:10060000FE4F8491F901E95AFE4FD491F901ED5B57
:10061000FE4FC491CC23A1F081110E94D102EC2F96
:10062000F0E0EE0FFF1FE75CFE4FA591B491EC9157
:10063000ED2381E090E009F480E0DF91CF9108950F
:1006400080E090E0FACF1F93CF93DF93282F30E024
:10065000F901E058FE4F8491F901E95AFE4FD49117
:10066000F901ED5BFE4FC491CC23A9F0162F811147
:100670000E94D102EC2FF0E0EE0FFF1FE15DFE4F74
:10068000A591B4918FB7F894EC91111108C0D09551
:10069000DE23DC938FBFDF91CF911F910895DE2B76
:1006A000F8CFCF93DF9390E0FC01E95AFE4F2491FD
:1006B0008D5B9E4FFC0184918823D1F090E0880FE0
:1006C000991FFC01EB5DFE4FA591B491FC01E15D2A
:1006D000FE4FC591D491623071F49FB7F8943C916C
:1006E000822F809583238C93E8812E2B28839FBFB4
:1006F000DF91CF9108958FB7F894EC912E2B2C9326
:100700008FBFF6CFCF93DF93EC0161E08BE00E94C7
:100710005103209731F460E08BE0DF91CF910C948E
:100720002303CF3FD10511F461E0F6CFEBE8F1E010
:10073000E491E33029F140F4E130B1F0E230D9F056
:10074000C038D1058CF7E7CFE73021F1E83051F11F
:10075000E430B1F780918000806280938000D09374
:100760008B00C0938A0004C084B5806884BDC7BD77
:10077000DF91CF91089584B5806284BDC8BDF8CF64
:1007800080918000806880938000D0938900C0931E
:100790008800EECF8091B00080688093B000C09355
:1007A000B300E6CF8091B00080628093B000C09328
:1007B000B400DECF3FB7F89480914C0290914D0287
:1007C000A0914E02B0914F0226B5A89B05C02F3FC5
:1007D00019F00196A11DB11D3FBFBA2FA92F982F67
:1007E0008827BC01CD01620F711D811D911D42E062
:1007F000660F771F881F991F4A95D1F708958F922A
:100800009F92AF92BF92CF92DF92EF92FF924B01F5
:100810005C010E94DA036B017C010E94DA036C190F
:100820007D098E099F09683E734081059105A8F3F3
:1008300021E0821A9108A108B10888EEC80E83E071
:10084000D81EE11CF11C81149104A104B10429F704
:10085000FF90EF90DF90CF90BF90AF909F908F90E0
:1008600008959F92AF92BF92CF92DF92EF92FF9244
:100870000F931F93CF93DF93A82EC62E9090520212
:1008800060E0892D0E94230308E010E030E8E32EA9
:10089000F12CB12CD0915402C5018E219F2161E031
:1008A000892B09F460E08D2F0E942303C091500230
:1008B00061E08C2F0E94230360E08C2F0E942303B1
:1008C000F594E7940150110929F708E010E090E849
:1008D000E92EF12CD12CC6018E219F2161E0892BBC
:1008E00009F460E08D2F0E94230361E08C2F0E94A9
:1008F000230360E08C2F0E942303F594E7940150BA
:10090000110949F761E0892DDF91CF911F910F9176
:10091000FF90EF90DF90CF90BF90AF909F900C949E
:1009200023030F931F93CF93DF9386E090E0909380
:100930004A02809349021092480210924702C091E5
:100940004902D0914A028091640290916502C530BB
:10095000D10524F1009147021091480208171907A8
:1009600030F4E0916002F09161023097A1F41092AE
:100970004602E6E4F2E060818C2F0E9431040F5FB2
:100980001F4F10934802009347022197D0934A02C9
:10099000C0934902D4CFE00FF11FEDCF24E030E047
:1009A00030934A022093490222E030E0309348021B
:1009B00020934702039738F0E0916002F0916102C2
:1009C000309709F03FC010924602E6E4F2E0608101
:1009D000605884E00E94310483E090E090934A02E2
:1009E000809349029093480280934702C091490244
:1009F000D0914A021C161D0654F500914702109131
:100A0000480280916402909165020817190730F43A
:100A1000E0916002F09161023097B1F410924602C9
:100A2000E6E4F2E060818C2F0E9431040F5F1F4FDB
:100A300010934802009347022197D0934A02C09333
:100A40004902D4CF3296C3CFE00FF11FEBCFDF9135
:100A5000CF911F910F9108950E941B01882359F097
:100A600081E080934D0580934E0580914F059091D4
:100A700050050C94600F10924E0560E070E0CB01C1
:100A80000895FB0101900020E9F73197AF01461B63
:100A9000570BDC01ED91FC910280F381E02D09946C
:100AA000809103038823A1F060915605809154053D
:100AB000909155050E946C0180910B03882341F0B1
:100AC00066E471E080915405909155050E944105BE
:100AD00010920A031092030380E008958F929F9270
:100AE000AF92BF92EF92FF920F931F93CF93DF933A
:100AF000CDB7DEB7A1970FB6F894DEBF0FBECDBF5E
:100B00007C01FA01CB0119A2223008F42AE08E01FF
:100B10000F5D1F4F822E912CB12CA12CBF01A5017E
:100B200094010E941010F901CA016A300CF5605D51
:100B3000D8016E938D01232B242B252B79F790E080
:100B400080E0109721F0BD01C7010E944105A196E8
:100B50000FB6F894DEBF0FBECDBFDF91CF911F91CE
:100B60000F91FF90EF90BF90AF909F908F9008955E
:100B7000695CDECFCF92DF92EF92FF920F931F93CB
:100B8000CF93DF9377FF1DC06A017B01EC016DE21B
:100B90000E946C018C0144275527BA014C195D094C
:100BA0006E097F092AE0CE010E946E05800F911F19
:100BB000DF91CF911F910F91FF90EF90DF90CF9039
:100BC00008952AE0DF91CF911F910F91FF90EF9050
:100BD000DF90CF900C946E050F931F93CF93DF930C
:100BE000EC0104E515E060915705F80180819181E1
:100BF0000E946C01AE01DD0F660B770BF80180815E
:100C00009181DF91CF911F910F910C94BA05909132
:100C10000303911110C091E09093030390930A0392
:100C2000482F50E070E060E02AE0809154059091F8
:100C300055050C946E050895CF93DF93209103031F
:100C4000222391F0EC016091570580915405909119
:100C500055050E946C01BE01809154059091550587
:100C6000DF91CF910C944105DF91CF910895CF93FF
:100C7000DF939091030391110AC0EB010E940706D4
:100C8000CE010E941C06DF91CF910C94500580E0AC
:100C9000DF91CF91089569E471E083E00C94370609
:100CA000CF93DF930E941B018823B1F081E08093F2
:100CB0004D0580934E05C0914F05D091500569E5D3
:100CC00071E0CE010E942312892B59F481E08093B8
:100CD0005F02DF91CF91089510924E05D0E0C0E001
:100CE000EECF6FE571E0CE010E942312892B89F7C8
:100CF00010925F02EECF0F931F93CF93DF93EC011F
:100D000088819981009759F02A813B8126173707FE
:100D100030F081E0DF91CF911F910F9108958B0109
:100D20006F5F7F4F0E945D11009759F09983888310
:100D30001B830A832C813D81232B59F7FC011082F0
:100D4000E8CF80E0E7CFEF92FF920F931F93CF930E
:100D5000DF9341155105B1F07B01EC010C811D8140
:100D6000040F151FB8010E947B06882361F02881BB
:100D700039818C819D81B701820F931F0E942C12B3
:100D80001D830C8381E0DF91CF911F910F91FF9024
:100D9000EF900895EF92FF920F931F93CF93DF93FD
:100DA000CDB7DEB728970FB6F894DEBF0FBECDBF24
:100DB0007C01CB014AE08E010F5F1F4FB8010E94FA
:100DC000870FF80101900020E9F73197AF01401B30
:100DD000510BB801C7010E94A30628960FB6F894DC
:100DE000DEBF0FBECDBFDF91CF911F910F91FF905E
:100DF000EF900895EF92FF920F931F93CF93DF939D
:100E000000D000D0CDB7DEB77C01862F4AE08E013E
:100E10000F5F1F4FB80190E00E94870FF80101900B
:100E20000020E9F73197AF01401B510BB801C70112
:100E30000E94A3060F900F900F900F90DF91CF911B
:100E40001F910F91FF90EF900895CF93DF93EC01E6
:100E500088819981009711F00E94D410198218821C
:100E60001D821C821B821A82DF91CF910895EF921E
:100E7000FF920F931F93CF93DF93EC018617970791
:100E800081F0FB01008111810115110539F0E48029
:100E9000F580B7010E947B0681110BC0CE010E9434
:100EA0002507CE01DF91CF911F910F91FF90EF9019
:100EB0000895FD82EC82B801888199810E942C12EC
:100EC000F0CFFC01118210821382128215821482EB
:100ED0000C943707EF92FF920F931F93CF93DF93FA
:100EE000EC01198218821B821A821D821C826115F4
:100EF000710521F18B01FB0101900020E9F7319789
:100F00007F01E61AF70AB7010E947B06811109C02A
:100F1000CE01DF91CF911F910F91FF90EF900C9434
:100F20002507FD82EC82B80188819981DF91CF91FC
:100F30001F910F91FF90EF900C942C12DF91CF91A5
:100F40001F910F91FF90EF900895FC018081918196
:100F5000009711F00C94D4100895EF92FF920F9324
:100F60001F93CF93DF93CDB7DEB72C970FB6F894CE
:100F7000DEBF0FBECDBF7C018B0180E00E94070663
:100F800084E991E00E94730180910303882319F0A2
:100F9000C7010E94EC05B801CE0101960E946107CD
:100FA000CE0101960E94A101CE0101960E94A507E3
:100FB00088E691E00E941C0683E691E00E941C06F0
:100FC00060E771E0CE0107960E946A0766E070E074
:100FD000CE0107960E94CA06BE01695F7F4FCE010F
:100FE00001960E946107CE0101960E94A101CE01E7
:100FF00001960E94A50788E791E00E941C068FE7F2
:1010000091E00E941C068BE891E00E941C0685E995
:1010100091E00E941C068FE991E00E941C060E944C
:101020005005CE0107960E94A5072C960FB6F8949E
:10103000DEBF0FBECDBFDF91CF911F910F91FF900B
:10104000EF900895CF92DF92EF92FF92CF93DF93CC
:1010500000D000D000D0CDB7DEB70E942C056B01C8
:101060007C010E942C050E942C050E941B018823F4
:1010700009F43FC081E080934D0580934E05609157
:101080004F0570915005CE0101960E946A0781E0DC
:10109000C816D104E104F10489F58AE090E0909348
:1010A00055028093540289E090E09093530280931C
:1010B00052028CE090E09093510280935002BE0166
:1010C0006F5F7F4F80E692E00E9437070E94910495
:1010D000CE0101960E94A50726960FB6F894DEBFB2
:1010E0000FBECDBFDF91CF91FF90EF90DF90CF90FB
:1010F000089510924E0570E060E0C5CF82E0C816FA
:10110000D104E104F10421F787E090E090935502C7
:101110008093540286E090E09093530280935202B1
:1011200088E090E0C8CFAF92BF92CF92DF92EF926B
:10113000FF920F931F93CF93DF9300D000D000D086
:10114000CDB7DEB75C016B017A01890180E00E94B6
:1011500007068FE191E00E947301809103038823C9
:1011600019F0C5010E94EC05B601CE0101960E945E
:101170006107CE0101960E94A101CE0101960E9455
:10118000A507B701CE0101960E946107CE01019625
:101190000E94A101CE0101960E94A507B801CE01CF
:1011A00001960E946107CE0101960E94A101CE0125
:1011B00001960E94A5070E94500526960FB6F89446
:1011C000DEBF0FBECDBFDF91CF911F910F91FF907A
:1011D000EF90DF90CF90BF90AF900895CF92DF92C5
:1011E000EF92FF920F931F93CF93DF93CDB7DEB7AC
:1011F00068970FB6F894DEBF0FBECDBF0E941B01EB
:10120000882381F181E080934D0580934E05009104
:101210004F05109150056BEA71E0C8010E9423123E
:10122000892B29F580E00E9407068AE191E00E945F
:10123000730185EF90E00E94730184ED90E00E94BD
:10124000730180910303882321F082E090E00E94E3
:10125000EC0582ED90E00E9473018FEA90E00E941D
:1012600073012BC010924E0510E000E0D4CF60EB6C
:1012700071E0C8010E942312892B81F580E00E9451
:10128000070685EB91E00E941C060E942C056B016D
:101290007C0180910303882381F060915705809140
:1012A0005405909155050E946C01B701A6018091EB
:1012B0005405909155050E94BA050E945005689604
:1012C0000FB6F894DEBF0FBECDBFDF91CF911F9157
:1012D0000F91FF90EF90DF90CF9008956AEB71E04F
:1012E000C8010E942312892B09F02DC180E00E94C1
:1012F000070681EC91E00E941C0683EA90E00E94C0
:10130000730185E990E00E9473018BE890E00E94F0
:10131000730188E790E00E9473010E94500568EC19
:1013200071E0CE010D960E946A076DEC71E0CE016E
:1013300007960E946A0768ED71E0CE0101960E944F
:101340006A079E01235F3F4FAE01495F5F4FBE01B9
:101350006F5F7F4F81E090E00E949308CE0101967D
:101360000E94A507CE0107960E94A507CE010D9603
:101370000E94A50768EC71E0CE010D960E946A07F5
:101380006DEC71E0CE0107960E946A0765EE71E090
:10139000CE0101960E946A079E01235F3F4FAE0176
:1013A000495F5F4FBE016F5F7F4F82E090E00E9418
:1013B0009308CE0101960E94A507CE0107960E94D0
:1013C000A507CE010D960E94A50768EC71E0CE013D
:1013D0000D960E946A076DEC71E0CE0107960E949F
:1013E0006A0769EE71E0CE0101960E946A079E01CC
:1013F000235F3F4FAE01495F5F4FBE016F5F7F4F7D
:1014000083E090E00E949308CE0101960E94A50718
:10141000CE0107960E94A507CE010D960E94A50752
:101420006EEE71E0CE0143960E946A076AEF71E0AA
:10143000CE010D960E946A0762E072E0CE01079627
:101440000E946A0780E00E94070688E690E00E94FA
:10145000730180910303882399F06091570580916F
:101460005405909155050E946C012AE045E650E034
:1014700060E070E080915405909155050E946E05E2
:10148000BE01695F7F4FCE0101960E946107CE01C8
:1014900001960E94A101CE0101960E94A507BE01FE
:1014A000635F7F4FCE0101960E946107CE010196D6
:1014B0000E94A101CE0101960E94A507BE016D5EAA
:1014C0007F4FCE0101960E946107CE0101960E94D6
:1014D000A101CE0101960E94A5070E945005CE01F0
:1014E00007960E94A507CE010D960E94A507CE0182
:1014F00043960E94A5076CE072E0CE0101960E941F
:101500006A07BE016F5F7F4F81E090E00E94AD07E8
:10151000CE0101960E94A50763E172E0CE0101961B
:101520000E946A07BE016F5F7F4F82E090E00E94D9
:10153000AD07CE0101960E94A5076AEB71E080E03D
:101540000E943706BACE6BE172E0C8010E942312F6
:10155000892B49F481E080935F0280E00E940706B6
:101560008EE690E07CCE6FE571E0C8010E94231208
:10157000892B09F0A4CE10925F02A1CE1F920F9288
:101580000FB60F9211242F933F934F935F936F9356
:101590007F938F939F93AF93BF93EF93FF9386E6D1
:1015A00092E00E944202FF91EF91BF91AF919F9113
:1015B0008F917F916F915F914F913F912F910F90FC
:1015C0000FBE0F901F9018951F920F920FB60F929B
:1015D00011242F938F939F93EF93FF93E0917602C3
:1015E000F09177028081E0917C02F0917D0282FD92
:1015F0001BC0908180917F028F5F8F73209180024A
:10160000821741F0E0917F02F0E0EA59FD4F958F9B
:1016100080937F02FF91EF919F918F912F910F9077
:101620000FBE0F901F9018958081F4CF1F920F92DC
:101630000FB60F9211242F933F938F939F93AF93E5
:10164000BF9380915B0290915C02A0915D02B0918A
:101650005E0230914B0223E0230F2D3758F501969F
:10166000A11DB11D20934B0280935B0290935C02FD
:10167000A0935D02B0935E0280914C0290914D0266
:10168000A0914E02B0914F020196A11DB11D809311
:101690004C0290934D02A0934E02B0934F02BF9123
:1016A000AF919F918F913F912F910F900FBE0F900F
:1016B0001F90189526E8230F0296A11DB11DD2CFC9
:1016C000109269021092680288EE93E0A0E0B0E008
:1016D00080936A0290936B02A0936C02B0936D02A8
:1016E00088E391E0909367028093660285EC90E036
:1016F000909373028093720284EC90E09093750251
:101700008093740280EC90E090937702809376024D
:1017100081EC90E0909379028093780282EC90E0E3
:1017200090937B0280937A0286EC90E090937D0206
:1017300080937C0210927F021092800210928102AC
:101740001092820210925A051092590586E692E094
:10175000909355058093540510920B038CE280936F
:1017600057058BE3809356058FE28093580580E4FC
:10177000809306038FE38093070310920503109272
:10178000500510924F05109252051092510581E0BC
:1017900080934D05EBE5F5E01192119285E0EF3B6A
:1017A000F807D1F710920A0368E471E080E692E04E
:1017B0000C946A07CF93DF93CDB7DEB762970FB66D
:1017C000F894DEBF0FBECDBF789484B5826084BD2F
:1017D00084B5816084BD85B5826085BD85B5816035
:1017E00085BD80916E00816080936E0010928100B3
:1017F000809181008260809381008091810081606E
:10180000809381008091800081608093800080912E
:10181000B10084608093B1008091B00081608093BA
:10182000B00080917A00846080937A0080917A0081
:10183000826080937A0080917A00816080937A0040
:1018400080917A00806880937A001092C10081E0D4
:1018500090E09093570280935602E7E04E2E512C71
:10186000F6E06F2E712CA8E0EA2EF12CBAE0CB2E18
:10187000D12C19E0A12EB12C0CE0802E912C0091DE
:10188000560210915702033011050CF4FAC162E0C0
:10189000809100010E94510362E0809101010E9449
:1018A000510362E0809107010E94510362E0809140
:1018B00008010E945103E0917602F091770282E0E4
:1018C0008083E0917202F09173021082E0917402C1
:1018D000F091750280E1808310927E02E0917A029D
:1018E000F0917B0286E08083E0917802F0917902AA
:1018F000808180618083E0917802F091790280811B
:1019000088608083E0917802F0917902808180681C
:101910008083E0917802F091790280818F7D8083CD
:1019200080910303811109C083E00E9407068BE6C2
:1019300091E00E9473010E9450058BE496E0909321
:101940005A05809359052EEE38E030935C052093BC
:101950005B0520E536E03093600520935F059093AA
:1019600062058093610582E298E090936A05809316
:10197000690561E08BE00E94510380910E01909116
:101980000F010E94820362E081E10E94510362E044
:1019900082E10E94510362E083E10E9451036624C8
:1019A00063947724739480915F02882309F4C8C0FC
:1019B00060E0C62E61E0D62EF12CE12C77E0B72E48
:1019C000D60111968C910E94FA028C01F601808159
:1019D0000E94FA02BE9CD001BF9CB00D1124A05001
:1019E000BF4F1696EC911697EF70000F111F082B42
:1019F00024E0E29FF0011124EA5EFE4FE00FF11DAA
:101A0000808116968C93169716968C9180738031F0
:101A100009F097C165E272E0E114F10409F499C19B
:101A20006DE272E088E00E94370683E10E94FA02CC
:101A3000892BA1F480910E0190910F018F3F9105A8
:101A40003CF40F9690930F0180930E010E94820345
:101A500065E070E080E090E00E94FF036AE070E0E3
:101A600080E090E00E94FF0387E0C80ED11CEA945A
:101A7000EF2809F062C10EE211E038E5E32E32E012
:101A8000F32EF80181810E94FA02D7012C912817C8
:101A9000190609F44BC0F801D080211173C16C9272
:101AA00068E471E0CE010D960E946A076D2DCE01AB
:101AB0000D960E94FA0641E050E063E472E0CE0128
:101AC0000D960E94A30670E060E0CE010D960E9484
:101AD000CA06BE01635F7F4FCE0107960E94610771
:101AE00080910303811114C088E00E940706BE01A3
:101AF000695F7F4FCE0101960E946107CE0101967A
:101B00000E94A101CE0101960E94A5070E945005E6
:101B1000CE0107960E94A507CE010D960E94A5074B
:101B200069E170E080E090E00E94FF030E5F1F4FCC
:101B3000BFEFEB1AFB0AE1E004331E0709F0A1CF67
:101B400080910A03811186C18091540590915505B9
:101B5000DC01ED91FC910084F185E02D0995892B44
:101B600009F478C18091540590915505DC01ED91FF
:101B7000FC910084F185E02D0995C12C22E0D22E44
:101B80008115924064F48091540590915505DC01D3
:101B9000ED91FC910084F185E02D09956C01009197
:101BA0005405109155059CE4A92E93E0B92E4501EA
:101BB000F12CE12CCE14DF0409F0FBC010E000E0B2
:101BC000C016D10609F4BCCFD5019D915D011092DC
:101BD0004C05309158052091090390930903931304
:101BE00004C0921302C01092090380910503E82FEC
:101BF000F0E040915605ED5FFC4F941312C132178F
:101C000009F40FC11186882321F070924C051092BF
:101C10000903109205031092500510924F0510927F
:101C200052051092510570924D05F0904C05B1E0AF
:101C3000FB120DC10E941B01882309F4FCC0F09225
:101C40004D05F0924E0580914F05909150050E94F0
:101C5000420F80930403823308F0F2C020914E05B6
:101C6000222309F4EDC0FC01FF27EE0FFF1FE55A08
:101C7000FA4F0190F081E02D309709F4E1C0099509
:101C8000E6C00130110509F048C0D0925502C0925B
:101C90005402B0925302A09252029092510280924A
:101CA000500261E0809154020E9451032090520240
:101CB00061E0822D0E9451033090500261E0832D3B
:101CC0000E94510361E0822D0E94230360E0832D76
:101CD0000E94230360E08FE00E94310461E08CE009
:101CE0000E9431046FEF89E00E94310461E08AE0D4
:101CF0000E94310467E08BE00E9431046FE081E0D4
:101D00000E9431046FE082E00E9431040F5F1F4F98
:101D10001093570200935602B2CD0230110509F616
:101D200050925502409254027092530260925202B5
:101D3000F0925102E0925002B4CFEE24E394F12CE1
:101D40003FCE803209F090CEE114F10431F463E328
:101D500072E088E00E9437067BCE6CE372E088E098
:101D60000E94370683E10E94FA02892B09F070CEA7
:101D700080910E0190910F01181619060CF068CE93
:101D80000F9760CE1C9268E471E0CE010D960E9420
:101D90006A076D2DCE010D960E94FA0641E050E0D3
:101DA00063E472E0CE010D960E94A30661E070E04C
:101DB0008CCE2FB7F89480915B0290915C02A09139
:101DC0005D02B0915E022FBFF80180879187A287E4
:101DD000B387D801ED91FC910284F385E02DC80111
:101DE000099597FF44C02FB7F89480915B029091BA
:101DF0005C02A0915D02B0915E022FBFF8014085A8
:101E0000518562857385841B950BA60BB70B4481A6
:101E100055816681778184179507A607B707C8F2B1
:101E2000CDCE91878F5F809305039091070389172B
:101E300008F0EFCEFACE10924E0590E080E009CF88
:101E4000E0915905F0915A05309709F018CF0F5FCE
:101E50001F4FB6CE80E090E0892B09F4A4CD0E94FC
:101E60002E02882309F49BCD0E94000098CDF40136
:101E700081934F01FFEFEF1AFF0A9CCE80E692E0BC
:101E80000C94A507FC0188279927E894219120321A
:101E9000E9F3293010F02E30C8F32B3241F02D3207
:101EA00039F4689404C00E94A70F820F911D2191FC
:101EB00020532A30C0F31EF4909581959F4F0895CA
:101EC0001F93FC0199278827BC01E89411911032D7
:101ED000E9F3193010F01E30C8F31B3251F01D32F7
:101EE00049F4689406C00E94920F610F711D811D14
:101EF000911D119110531A30B0F33EF490958095D6
:101F0000709561957F4F8F4F9F4F1F910895BB270D
:101F10004A3031F4992322F4BDE2909581959F4F88
:101F20000C94B00F592F482F372F262F660F771F8D
:101F3000881F991F660F771F881F991F620F731FD5
:101F4000841F951F660F771F881F991F08957AE0D9
:101F5000979F902D879F802D910D11240895BB2769
:101F6000FB015527AA27880F991FAA1FA41710F055
:101F7000A41B83955051B9F7A05DAA3308F0A95D61
:101F8000A193009779F7B111B1931192CB010C9401
:101F9000C90FDC01FC01672F71917723E1F73297BC
:101FA00004C07C916D9370836291AE17BF07C8F334
:101FB00008952F923F924F925F926F927F928F92ED
:101FC0009F92AF92BF92CF92DF92EF92FF920F93C8
:101FD0001F93CF93DF93CDB7DEB7CA1BDB0B0FB6D2
:101FE000F894DEBF0FBECDBF09942A88398848888F
:101FF0005F846E847D848C849B84AA84B984C88425
:10200000DF80EE80FD800C811B81AA81B981CE0F1B
:10201000D11D0FB6F894DEBF0FBECDBFED01089500
:10202000A1E21A2EAA1BBB1BFD010DC0AA1FBB1FDC
:10203000EE1FFF1FA217B307E407F50720F0A21B4E
:10204000B30BE40BF50B661F771F881F991F1A94BB
:1020500069F760957095809590959B01AC01BD01E5
:10206000CF010895EE0FFF1F0590F491E02D099424
:102070000F931F93CF93DF938230910510F482E08A
:1020800090E0E091C105F091C20530E020E0B0E0C1
:10209000A0E0309799F42115310509F44AC0281BB6
:1020A000390B24303105D8F58A819B816115710582
:1020B00089F1FB0193838283FE0111C0408151812C
:1020C0000281138148175907E0F04817590799F41E
:1020D000109761F012960C93129713961C933296F8
:1020E000CF01DF91CF911F910F9108950093C1050A
:1020F0001093C205F4CF2115310551F04217530753
:1021000038F0A901DB019A01BD01DF01F801C1CF5F
:10211000EF01F9CF9093C2058093C105CDCFFE01A9
:10212000E20FF31F81939193225031093983288361
:10213000D7CF2091BF053091C005232B41F42091CA
:102140001201309113013093C0052093BF052091F7
:102150001001309111012115310541F42DB73EB721
:102160004091140150911501241B350BE091BF05DE
:10217000F091C005E217F307A0F42E1B3F0B2817C0
:10218000390778F0AC014E5F5F4F2417350748F0F0
:102190004E0F5F1F5093C0054093BF0581939193ED
:1021A0009FCFF0E0E0E09CCFCF93DF930097E9F082
:1021B000FC01329713821282A091C105B091C20531
:1021C000ED0130E020E01097A1F420813181820FF1
:1021D000931F2091BF053091C0052817390709F0DA
:1021E00061C0F093C005E093BF05DF91CF910895E2
:1021F000EA01CE17DF07E8F54A815B819E014115B0
:102200005105B1F7E901FB83EA8349915991C40F64
:10221000D51FEC17FD0761F4808191810296840F30
:10222000951FE90199838883828193819B838A83A7
:10223000F0E0E0E012968D919C9113970097B9F52C
:102240002D913C911197CD010296820F931F209101
:10225000BF053091C0052817390739F6309751F579
:102260001092C2051092C105B093C005A093BF059E
:10227000BCCFD383C28340815181840F951FC8177F
:10228000D90761F44E5F5F4F88819981480F591FCC
:10229000518340838A819B819383828321153105F9
:1022A00009F0B0CFF093C205E093C1059ECFFD01C8
:1022B000DC01C0CF13821282D7CFB0E0A0E0E3E60A
:1022C000F1E10C94DB0F8C01009751F4CB010E94DB
:1022D00038108C01C801CDB7DEB7E0E10C94F70FE0
:1022E000FC01E60FF71F9C0122503109E217F307AA
:1022F00008F49DC0D901CD91DC911197C617D7077D
:1023000098F0C530D10530F3CE01049786179707B2
:1023100008F3C61BD70B2297C193D1936D937C937F
:10232000CF010E94D410D6CF5B01AC1ABD0A4C017C
:102330008C0E9D1EA091C105B091C205512C412C5F
:10234000F12CE12C109731F58091BF059091C005DB
:102350008815990509F05CC04616570608F058C064
:102360008091100190911101009741F48DB79EB7B3
:102370004091140150911501841B950BE817F90742
:1023800008F055C0F093C005E093BF05F9017183D3
:102390006083A0CF8D919C91119712966C901297AB
:1023A00013967C901397A815B90559F56C0142E076
:1023B000C40ED11CCA14DB0420F1AC014A195B091C
:1023C000DA011296159780F06282738251834083FE
:1023D000D9016D937C93E114F10471F0D701139648
:1023E000FC93EE93129776CF22968C0F9D1FF901E6
:1023F00091838083F301EFCFF093C205E093C10591
:1024000069CF4816590608F42C017D01D3019ACFF3
:10241000CB010E9438107C01009749F0AE01B80151
:102420000E941A12C8010E94D410870153CF10E0F5
:1024300000E050CFFB01DC0102C001900D92415041
:102440005040D8F70895FB01DC018D91019080196F
:102450000110D9F3990B0895FB01DC0101900D9255
:102460000020E1F7089510E0CFECD0E004C0FE01B9
:102470000E9432102196C03DD107C9F7F894FFCFD2
:1024800002030100FFFF00040564009CFF00FF0041
:102490000000C305800003020100130001002302B5
:1024A00000000305040003030420030503100111C9
:1024B00002120313000000006402C401F101B10222
:1024C0002202000214020D0A00554E4B4E4F574E89
:1024D00020434F4D4D414E4400535441525400450A
:1024E0004E4400535041445F444953504C415900BD
:1024F0004C454E4754483D00524F57533D31004ED6
:102500004F50414444494E473D3100574944544897
:102510003D313333004845494748543D3430004647
:102520004F4E5453495A453D343000494E495400AA
:1025300050494E4700504F4E4700434F4E46494783
:10254000004F5054494F4E00535041445F50555333
:1025500048425554544F4E00454E434F4445525FF8
:10256000505553480054465200544553540053505C
:1025700041445F444F55424C455F454E434F4445AF
:102580005200454E434F4445525F31004143544948
:102590005645005354414E444259005343414E5313
:1025A00054415445003130312C313030003130311C
:1025B0002C31003130312C2D313030003130312C84
:0625C0002D31002C00008B
:00000001FF
