:100000000C94D1000C9492070C946B070C94F9009B
:100010000C94F9000C94F9000C94F9000C94F9007C
:100020000C94F9000C94F9000C94F9000C94F9006C
:100030000C94F9000C94F9000C94F9000C94F9005C
:100040000C9421070C94F9000C94EF060C94C9064B
:100050000C94F9000C94F9000C94F9000C94F9003C
:100060000C94F9000C94F9004E414E494E495459F4
:10007000494E46CDCCCC3D0AD7233C17B7D1387773
:10008000CC2B329595E6241FB14F0A000020410089
:1000900000C84200401C4620BCBE4CCA1B0E5AAED3
:1000A000C59D7400000000240027002A0000000005
:1000B00000250028002B0073696D2F726164696F41
:1000C000732F737462795F636F6D315F66696E65FC
:1000D0005F646F776E5F3833330073696D2F7261C1
:1000E00064696F732F737462795F636F6D315F66DC
:1000F000696E655F75705F3833330073696D2F7299
:100100006164696F732F737462795F636F6D315FC0
:10011000636F617273655F646F776E0073696D2FD3
:10012000726164696F732F737462795F636F6D318D
:100130005F636F617273655F75700073696D2F72B5
:100140006164696F732F636F6D315F7374616E6487
:10015000795F666C697000000000002300260029AA
:100160000004040404040404040202020202020360
:10017000030303030301020408102040800102046A
:1001800008102001020408102000000008000201ED
:1001900000000304070000000000000000005708F2
:1001A000CC1111241FBECFEFD8E0DEBFCDBF26E0BB
:1001B000ACECB2E001C01D92A33AB207E1F712E045
:1001C000A0E0B1E0E8E4F6E302C005900D92AC3C9B
:1001D000B107D9F710E0C0EDD0E004C02197FE01CF
:1001E0000E947016CF3CD107C9F70E94E9080C9411
:1001F000171B0C940000FC012481358162177307E2
:1002000020F480819181009729F41092D90289ED20
:1002100092E00895860F971F08950895AF92BF92B8
:10022000CF92DF92EF92FF920F931F93CF93DF93C2
:100230006C017B018B01040F151FEB015E01AE18F1
:10024000BF08C017D10759F06991D601ED91FC9113
:100250000190F081E02DC6010995892B79F7C50140
:10026000DF91CF911F910F91FF90EF90DF90CF9092
:10027000BF90AF900895FC01538D448D252F30E041
:10028000842F90E0821B930B541710F0CF960895A3
:1002900001970895FC01918D828D981761F0A28DD0
:1002A000AE0FBF2FB11D5D968C91928D9F5F9F7396
:1002B000928F90E008958FEF9FEF0895FC01918D4C
:1002C000828D981731F0828DE80FF11D858D90E0B9
:1002D00008958FEF9FEF0895FC01918D228D892F56
:1002E00090E0805C9F4F821B91098F73992708953E
:1002F0008CE293E00E946C0121E0892B09F420E05C
:10030000822F089580E090E0892B29F00E947801E7
:1003100081110C9400000895FC01A48DA80FB92F41
:10032000B11DA35ABF4F2C91848D90E001968F731D
:100330009927848FA689B7892C93A089B1898C913C
:10034000837080648C93938D848D981306C002888B
:10035000F389E02D80818F7D80830895EF92FF9255
:100360000F931F93CF93DF93EC0181E0888F9B8DD8
:100370008C8D98131AC0E889F989808185FF15C092
:100380009FB7F894EE89FF896083E889F9898081B5
:100390008370806480839FBF81E090E0DF91CF9184
:1003A0001F910F91FF90EF900895F62E0B8D10E0A6
:1003B0000F5F1F4F0F731127E02E8C8D8E110CC015
:1003C0000FB607FCFACFE889F989808185FFF5CF60
:1003D000CE010E948C01F1CFEB8DEC0FFD2FF11DB2
:1003E000E35AFF4FF0829FB7F8940B8FEA89FB899D
:1003F00080818062CFCFCF93DF93EC01888D8823FB
:10040000B9F0AA89BB89E889F9898C9185FD03C077
:10041000808186FD0DC00FB607FCF7CF8C9185FF5C
:10042000F2CF808185FFEDCFCE010E948C01E9CF14
:10043000DF91CF910895833081F028F4813099F0D5
:100440008230A9F008958730A9F08830C9F084304F
:10045000B1F4809180008F7D03C0809180008F7700
:1004600080938000089584B58F7784BD089584B506
:100470008F7DFBCF8091B0008F778093B00008957F
:100480008091B0008F7DF9CF1F93CF93DF93282FFA
:1004900030E0F901E757FE4F8491F901EB58FE4F28
:1004A000D491F901EF59FE4FC491CC23A9F0162F36
:1004B00081110E941B02EC2FF0E0EE0FFF1FE355AD
:1004C000FF4FA591B4918FB7F894EC91111108C02A
:1004D000D095DE23DC938FBFDF91CF911F910895DC
:1004E000DE2BF8CFCF93DF9390E0FC01EB58FE4F6B
:1004F00024918F599E4FFC0184918823D1F090E084
:10050000880F991FFC01ED55FF4FA591B491FC0197
:10051000E355FF4FC591D491623071F49FB7F894C1
:100520003C91822F809583238C93E8812E2B288306
:100530009FBFDF91CF9108958FB7F894EC912E2B48
:100540002C938FBFF6CF1F93CF93DF93182FEB0120
:1005500061E00E947202209739F460E0812FDF9100
:10056000CF911F910C944402CF3FD10511F461E06B
:10057000F5CFE12FF0E0E757FE4FE491E33031F1A2
:1005800040F4E130B1F0E230E1F0C038D1057CF761
:10059000E4CFE73029F1E83059F1E430B1F7809148
:1005A0008000806280938000D0938B00C0938A008B
:1005B00004C084B5806884BDC7BDDF91CF911F9111
:1005C000089584B5806284BDC8BDF7CF8091800056
:1005D000806880938000D0938900C0938800EDCF1D
:1005E0008091B00080688093B000C093B300E5CFE5
:1005F0008091B00080628093B000C093B400DDCFE2
:100600003FB7F8948091D5029091D602A091D7027D
:10061000B091D80226B5A89B05C02F3F19F00196CE
:10062000A11DB11D3FBFBA2FA92F982F8827BC014C
:10063000CD01620F711D811D911D42E0660F771F74
:10064000881F991F4A95D1F708958F929F92AF9274
:10065000BF92CF92DF92EF92FF920E9400034B0174
:100660005C018FE0C82ED12CE12CF12C0E940003FC
:10067000681979098A099B09683E734081059105CB
:10068000A8F321E0C21AD108E108F10888EE880E2B
:1006900083E0981EA11CB11CC114D104E104F10433
:1006A00029F7FF90EF90DF90CF90BF90AF909F9091
:1006B0008F9008952FB7F8946091D1027091D20273
:1006C0008091D3029091D4022FBF08950895DC0148
:1006D000ED91FD918081ED91FD919081ED91FD91E4
:1006E0006C9163708E2309F064609F2309F0686049
:1006F000E4E8F3E0E60FF11D659565956D936D9166
:100700007D918D919D91099423C01AC012C016C08D
:1007100010C01EC009C014C013C006C019C009C053
:100720000DC007C00DC014C06250704080409040A2
:100730000BC0615070408040904006C06E5F01C0A9
:100740006F5F7F4F8F4F9F4F9E938E937E936E93DD
:1007500008958091CE029091CF020C94670380910E
:10076000CC029091CD020C9467030F931F93CF930B
:10077000DF93082F162FD42FC8E06D2F661F662732
:10078000661F802F0E944402DD0F61E0812F0E94CE
:10079000440260E0812F0E944402C15071F7DF9152
:1007A000CF911F910F9108950F931F93CF93DF93D4
:1007B00000D0CDB7DEB78C0169834A8360E0FC01CD
:1007C00082810E9444024981F801608184810E94F3
:1007D000B5034A81F801608184810E94B50361E01C
:1007E000F80182810F900F90DF91CF911F910F91AF
:1007F0000C9444023DED340F3A30B0F030E0A6E105
:10080000B1E0F0E0E0E05C915523A1F012965413C2
:100810000FC0EE0FFF1FEA5EFE4F4181232B09F050
:1008200040686F5F0C94D403435F21E030E0E7CF72
:100830003196E9CF40E0F5CF462F4F706AE00C9437
:10084000D4030F931F93CF938C01C1E040E06C2F32
:10085000C8010E94D403CF5FC930C1F7CF911F9167
:100860000F910895CF93DF93EC0161E08A810E949C
:10087000440247E06BE0CE010E94D40340E069E00F
:10088000CE010E94D40341E06CE0CE010E94D4036B
:1008900040E06FE0CE010E94D403CE010E9421040B
:1008A0006FE0CE01DF91CF910C941C046F927F9288
:1008B0008F929F92AF92BF92CF92DF92EF92FF9270
:1008C0000F931F93CF93DF93CDB7DEB7E0970FB6AB
:1008D000F894DEBF0FBECDBF4C011AA219A2FE01D3
:1008E000B3968EE0DF011D928A95E9F7FB01019036
:1008F0000020E9F7CF010197861B970B8131910505
:1009000010F080E190E0DB0110E000E021E030E059
:10091000AD01461B570B481759072CF54D914E3228
:1009200069F4F8013197EE0FFF1F41E050E04C0FE2
:100930005D1FE40FF51F31832083EACFE1E2F0E091
:10094000EC0FFD1FE00FF11F4083F801EE0FFF1FBA
:1009500041E050E04C0F5D1FE40FF51F1182108243
:100960000F5F1F4FD5CF0930110514F008E010E0DC
:10097000CE0101967C015E0191E2A90EB11C6501D8
:1009800038016A0C7B1CC6018A199B0980179107E4
:1009900094F4D7018D919D917D01F60141916F01F4
:1009A00021E0892B09F420E0B3016C197D09C40111
:1009B0000E94FA03E8CFE0960FB6F894DEBF0FBEB0
:1009C000CDBFDF91CF911F910F91FF90EF90DF90FE
:1009D000CF90BF90AF909F908F907F906F90089531
:1009E000FB0101900020E9F73197AF01461B570B3F
:1009F000DC01ED91FC910280F381E02D099463E626
:100A000074E08091C9039091CA030E94F004E3E668
:100A1000F4E001900020E9F7E45AF44041F464E97D
:100A200071E08091C9039091CA030C94F004089579
:100A30000F931F93CF93DF93C0919906D0919A069D
:100A4000C436D1056CF58C0180E190E00E947616E9
:100A5000FC01DE01AA0FBB1FA153BA4FED93FC931B
:100A600015830483138212821386128681E090E03C
:100A7000958784878FEF9FEF918380839787868701
:100A8000CE01019690939A068093990610929C0647
:100A900010929B06CE01DF91CF911F910F91089587
:100AA000CFEFDFEFF7CFEF92FF920F931F93CF932C
:100AB000DF93C0919706D0919806C436D1050CF00B
:100AC00046C08B017C0184E290E00E947616FC0116
:100AD000DE01AA0FBB1FA95FBA4FED93FC93178AE3
:100AE000168AF58AE48A81E090E09383828340E06D
:100AF00050E060E87FE346835783608771874AE070
:100B000050E060E070E0448755876687778795837B
:100B10008483118F008F128E138E148E158E13A264
:100B200012A28FEF9FEF91838083CE010196909365
:100B300098068093970610929C0610929B06CE0111
:100B4000DF91CF911F910F91FF90EF900895CFEF1C
:100B5000DFEFF5CF880F991FFC01E153FA4F0190A9
:100B6000F081E02D309749F18081918197FD22C07D
:100B70001F922EE32F931F9221E02F939F938F9329
:100B80001F928BE68F931F928CE38F9386E991E0FF
:100B90009F938F9383E694E09F938F930E947618A0
:100BA0000E94FF048DB79EB70E960FB6F8949EBFB5
:100BB0000FBE8DBF90E080E008958FEF9FEF089506
:100BC00077FD1EC01F922EE32F937F936F939F9309
:100BD0008F931F928CE38F9384EA91E09F938F937E
:100BE00083E694E09F938F930E9476188DB79EB70B
:100BF0000C960FB6F8949EBF0FBE8DBF0C94FF04E9
:100C000008951F93CF93DF93C9ECD3E01F811F8218
:100C10008DEC93E00E94D8111F83DF91CF911F913B
:100C20000895FC0180819181009711F00C941217B6
:100C300008950F931F93CF93DF938C01EB01FC0179
:100C4000808191810097E1F068817981611571055A
:100C5000A9F0428153812C813D814217530770F0E6
:100C60000E9461188C819D81F801958384831D8287
:100C70001C82DF91CF911F910F9108950E9412174E
:100C800088819981F801918380838A819B819383F4
:100C900082838C819D8195838483198218821B8233
:100CA0001A82E5CFEF92FF920F931F93CF93DF93BA
:100CB000EC017B018A0188819981009729F02A81C2
:100CC0003B812417350788F4B8016F5F7F4F0E947E
:100CD0009B17009791F0998388831B830A832C814B
:100CE0003D81232B11F4FC0110821D830C83B7017D
:100CF000888199810E9461180CC088819981009730
:100D000011F00E941217198218821D821C821B8208
:100D10001A82CE01DF91CF911F910F91FF90EF903A
:100D20000895EF92FF920F931F93CF93DF93CDB768
:100D3000DEB7A2970FB6F894DEBF0FBECDBF8C0111
:100D4000CB01BA01F801118210821382128215823E
:100D500014822AE0AE014F5F5F4F7A010E941D129C
:100D6000F70101900020E9F73197AF014E195F09B3
:100D7000B701C8010E945206A2960FB6F894DEBFD2
:100D80000FBECDBFDF91CF911F910F91FF90EF90DC
:100D900008951F920F920FB60F9211242F933F9335
:100DA0004F935F936F937F938F939F93AF93BF9373
:100DB000EF93FF938CE293E00E948C01FF91EF91FF
:100DC000BF91AF919F918F917F916F915F914F9163
:100DD0003F912F910F900FBE0F901F9018951F926B
:100DE0000F920FB60F9211242F938F939F93EF932F
:100DF000FF93E0913C03F0913D038081E091420339
:100E0000F091430382FD1BC09081809145038F5F69
:100E10008F7320914603821741F0E0914503F0E083
:100E2000E45DFC4F958F80934503FF91EF919F9177
:100E30008F912F910F900FBE0F901F90189580816A
:100E4000F4CF1F920F920FB60F9211242F933F935E
:100E50008F939F93AF93BF938091D1029091D202D1
:100E6000A091D302B091D4023091D00223E0230F9D
:100E70002D3758F50196A11DB11D2093D002809306
:100E8000D1029093D202A093D302B093D402809166
:100E9000D5029091D602A091D702B091D8020196C6
:100EA000A11DB11D8093D5029093D602A093D702C5
:100EB000B093D802BF91AF919F918F913F912F91A5
:100EC0000F900FBE0F901F90189526E8230F0296E3
:100ED000A11DB11DD2CF1F920F920FB60F921124F8
:100EE0002F933F934F935F936F937F938F939F9332
:100EF000AF93BF93EF93FF93E0910201F091030151
:100F00000995FF91EF91BF91AF919F918F917F9143
:100F10006F915F914F913F912F910F900FBE0F9066
:100F20001F9018951F920F920FB60F9211242F93B6
:100F30003F934F935F936F937F938F939F93AF9361
:100F4000BF93EF93FF93E0910001F09101010995A8
:100F5000FF91EF91BF91AF919F918F917F916F9191
:100F60005F914F913F912F910F900FBE0F901F9067
:100F70001895FB0105900020E9F7609570956E0FBC
:100F80007F1FCB010895FA01DC012150304030F081
:100F90008D910590801919F40020B9F7881B990BE1
:100FA0000895823021F08330A9F080E00895709395
:100FB000CD026093CC028FEA93E09093010180937D
:100FC0000001809169008C7F816080936900E89ABC
:100FD00081E008957093CF026093CE0289EA93E096
:100FE000909303018093020180916900837F846064
:100FF00080936900E99AECCF0F931F93CF93DF930F
:10100000EC01062F142F62E0802F0E94720262E032
:10101000812F0E947202802F90E0FC01EF59FE4F59
:10102000E491F0E0EE0FFF1FE95AFE4FA591B49155
:10103000B983A883FC01EB58FE4F24912C83812FA8
:1010400090E0FC01EF59FE4FE491F0E0EE0FFF1F3E
:10105000E95AFE4F459154915B834A83FC01EB585A
:10106000FE4FE491ED831F82188619861A868BE362
:101070009FE10197F1F78C91282391E009F490E02A
:10108000DA018C91E82309F092609E83BE01802FE3
:101090000E94D1078B87BE01812F0E94D1079B85BB
:1010A000890F8B87DF91CF911F910F910895CF9377
:1010B000DF93ECE2F3E01382128286E891E0918301
:1010C000808385EC90E09587848784EC90E0978717
:1010D000868780EC90E0918B808B81EC90E0938B05
:1010E000828B82EC90E0958B848B86EC90E0978BE2
:1010F000868B118E128E138E148EF093CA03E0939A
:10110000C90384EF91E0A0E0B0E084839583A683D7
:10111000B783C6E2D3E08AE090E09D838C8389E0C8
:1011200090E09B838A838CE090E09983888361E0E0
:101130008AE00E94720261E08A810E94720261E08C
:1011400088810E947202C0E2D3E087E090E09D8334
:101150008C8386E090E09B838A8388E090E099838B
:10116000888361E087E00E94720261E08A810E94C8
:10117000720261E088810E94720243E062E084E1D1
:1011800093E00E94FC0745E064E088E093E00E9461
:10119000FC07E2E0F3E011821082138212821582D2
:1011A000148250E040E065E971E0CF010E945206F0
:1011B000ECEFF2E011821082138212821582148207
:1011C00050E040E065E971E0CF01DF91CF910C94F0
:1011D0005206CF93DF9300D000D000D0CDB7DEB75A
:1011E000789484B5826084BD84B5816084BD85B502
:1011F000826085BD85B5816085BD80916E0081600E
:1012000080936E00109281008091810082608093B3
:1012100081008091810081608093810080918000B5
:101220008160809380008091B10084608093B100E0
:101230008091B00081608093B00080917A008460DA
:1012400080937A0080917A00826080937A00809106
:101250007A00816080937A0080917A008068809320
:101260007A001092C10061E08BE00E94720262E09D
:1012700083E10E94720262E082E10E94720268ECE5
:1012800070E08BE00E94A302F89410921B0310926E
:101290001C0310921D0310921E037894F894109270
:1012A0000F031092100310921103109212037894FE
:1012B00080E293E00E94320486E293E00E943204CE
:1012C00080E293E00E94210486E293E00E942104E0
:1012D00063E086E293E00E941C0463E080E293E016
:1012E0000E941C0460EB71E086E293E00E945604C9
:1012F00065EB71E080E293E00E945604E0913C03CC
:10130000F0913D0382E08083E0913803F09139034E
:101310001082E0913A03F0913B0380E180831092C8
:101320004403E0914003F091410386E08083E09123
:101330003E03F0913F03808180618083E0913E0312
:10134000F0913F03808188608083E0913E03F091BB
:101350003F03808180688083E0913E03F0913F03EA
:1013600080818F7D80838BEB91E090930605809345
:1013700005051092FC041092FB041092980610923E
:10138000970610929A061092990610929C06109257
:101390009B061092CB036AED72E08FEC91E00E9405
:1013A00053056EED72E083E092E00E9453050091D8
:1013B000970610919806043611050CF040C084E29F
:1013C00090E00E947616FC01D801AA0FBB1FA95F0E
:1013D000BA4FED93FC93178A168A8FE392E0958BB0
:1013E000848B81E090E09383828382E090E0958318
:1013F000848380EF92E0918F808F168E178E10A2DB
:1014000011A284E690E0A0E0B0E084879587A687EB
:10141000B787168217821086118683E090E093A327
:1014200082A38FEF9FEF918380830F5F1F4F1093F5
:1014300098060093970610929C0610929B060091C6
:10144000990610919A060436110584F580E190E022
:101450000E947616FC01000F111FD801A153BA4F4C
:10146000ED93FC938BE391E0958384831382128246
:101470001386128681E090E0958784878FEF9FEF37
:101480009183808382E190E09787868762E00E9463
:1014900072028091990690919A06019690939A060D
:1014A0008093990610929C0610929B068CE191E025
:1014B0000E9418059093E7028093E6028BEF90E07C
:1014C0000E9418059093E9028093E8028AED90E06B
:1014D0000E9418059093E3028093E20287EB90E06C
:1014E0000E9418059093E5028093E40203E614E05D
:1014F0008091C9039091CA03DC01ED91FC910084B5
:10150000F185E02D09952091CB03892B81F02C33B7
:1015100081F08091C9039091CA03DC01ED91FC91A7
:101520000284F385E02D09958093CB03E1CF2C3322
:10153000C9F5C090C903D090CA03BCECAB2EB3E090
:10154000BB2EF12CE12C0E945A03F60160877187B3
:1015500082879387D601ED91FC910284F385E02D7B
:10156000C601099597FFE9C60E945A03F601408417
:1015700051846284738464197509860997094480CB
:10158000558066807780641575058605970510F38C
:10159000F0926204E0926104E114F10409F092C057
:1015A0001092CB0380919B0690919C06892B09F4A5
:1015B0006AC429EC422E23E0522E312C212C3EE32A
:1015C000732E45E6642E8091970690919806281612
:1015D00039060CF4FAC29FECE92E95E0F92EB12CF5
:1015E000A12C8091990690919A06A816B9060CF044
:1015F0004AC4D701ED91FC918081918197FD5BC038
:101600000E945A03D701ED91FC9146805780608477
:10161000718464197509860997096D3271408105D5
:10162000910508F448C02685378537FD00C4332767
:10163000F901E757FE4F8491F901EB58FE4FC49032
:10164000F901EF59FE4FD490DD2009F4E8C3811170
:101650000E941B02ED2DF0E0EE0FFF1FE95AFE4F36
:10166000A591B491EC91CE2291E080E009F490E054
:10167000C92ED82ED701ED91FC91848595858C15C6
:101680009D05C9F060817181B1E0CB16D10409F0EC
:10169000C9C38AE690E00E94E0050E945A03D70180
:1016A000ED91FC916683778380879187D701ED91D7
:1016B000FC91D586C486BFEFAB1ABB0AE2E0EE0E02
:1016C000F11C8FCFF701E753FC4F2EE32383F70183
:1016D0003296F0936204E0936104E753FC4F128268
:1016E0008091CC03813609F44FC074F4833309F43C
:1016F00097C0843309F4EBC0823309F051CF1092C4
:10170000FC041092FB044CCF853609F4E1C1863607
:1017100011F1843609F044CFE7E0F5E090E080E095
:101720002091970630919806821793070CF038CFD6
:10173000A191B19112962D913C91139722503109AC
:101740002230310530F421E030E01B963C932E939B
:101750001A970196E5CF2091970630919806E7E019
:10176000F5E090E080E0821793070CF071C18436B9
:10177000910509F46DC1E190F190D7014D915C9113
:1017800057FDFCC00196EFCF8091050590910605AD
:101790000097C9F01F922F939F938F931F9280E31E
:1017A0008F931F928CE38F9386E692E09F938F93A3
:1017B0001F930F930E9476180E94FF040FB6F894AF
:1017C000DEBF0FBECDBF41E050E05093FC0440931C
:1017D000FB04E7E0F5E090E080E02091970630918F
:1017E000980682179307A4F0EFECF5E090E080E014
:1017F0002091990630919A06821793070CF0D0CE6B
:10180000A191B1914FEF5FEF4D935C930196F0CFB3
:10181000A191B1912FEF3FEF2D933C930196DDCF36
:10182000F12CE12C8091970690919806E816F90624
:101830000CF0B6CEF701EE0FFF1FE95FFA4FC08044
:10184000D180D60154966D917C916115710501F19D
:10185000FB0101900020E9F73197AF01461B570BC0
:1018600080ED93E00E946818892B71F4F601808165
:101870009181019649F40E940106D6018D939C93B3
:10188000E0909706F0909806FFEFEF1AFF0ACACF94
:10189000F60186889788092C000CAA08BB08C501A8
:1018A000B4010E94B9079C01B501A40180ED93E049
:1018B0000E94C307892B41F7D6018D919C91019617
:1018C00019F70E940106F60191838083D9CFF12C8C
:1018D000E12C8091990690919A06E816F9060CF091
:1018E0005FCEF701EE0FFF1FE153FA4FC080D180AA
:1018F000D60112966D917C916115710501F1FB0184
:1019000001900020E9F73197AF01461B570B80ED9E
:1019100093E00E946818892B71F4F601808191810F
:10192000019649F40E940106D6018D939C93E090A4
:101930009906F0909A06FFEFEF1AFF0ACACFF60158
:1019400084809580092C000CAA08BB08C501B4014D
:101950000E94B9079C01B501A40180ED93E00E94AB
:10196000C307892B41F7D6018D919C91019619F7F8
:101970000E940106F60191838083D9CFF701C488C4
:10198000D588468057806084718420E030E048EC40
:1019900052E4C301B2010E9452140E94D115CB013E
:1019A00064E670E00E940716B82EA92EC301B201AA
:1019B0000E94D115D70192962C91929793963C91C3
:1019C000939712968C91129713969C911397C1142A
:1019D000D10419F11F924EE34F93DF92CF92AF9251
:1019E000BF927F936F933F932F939F938F931F92F9
:1019F00082E68F931F928CE38F938FE692E09F9302
:101A00008F931F930F930E9476180FB6F894DEBF42
:101A10000FBECDBF0E94FF04C3CD1F924EE34F9374
:101A200057964C9157974F9356964C914F93AF9230
:101A3000BF927F936F933F932F939F938F931F92A8
:101A400082E68F931F928CE38F938BE892E0D7CF3F
:101A5000AFECB5E090E080E02091990630919A06D5
:101A6000821793070CF079C48436910509F475C484
:101A7000ED91FD912081318137FD02C00196ECCFBF
:101A8000828193810097A1F01F922EE32F939F9361
:101A90008F931F928DE68F931F928CE38F9386E630
:101AA00092E09F938F931F930F930E947618ADCF70
:101AB0001F928EE38F9385818F9384818F931F92E2
:101AC0008DE68F931F928CE38F9387EA92E0E9CFA4
:101AD0000E9401065C0190E080E020919706309121
:101AE0009806821793070CF05BCD7C015FE9E50E49
:101AF000F11C9701220F331FD901A753BC4F6D0171
:101B0000ED91FC9120813181A216B30609F05BC0F2
:101B1000228133812D7F2130310509F054C0848129
:101B200095810197F9F4808C918C7090DA03109272
:101B3000DA0380ED93E00E94F611F4016083718373
:101B4000828393837092DA03D601ED91FC91A08D8C
:101B5000B18D8D919D910D90BC91A02D828F938F11
:101B6000A48FB58FEE0CFF1CF701E753FC4F7F01EC
:101B70000190F081E02D84819581029701F5C08C60
:101B8000D18C9090DA031092DA0380ED93E00E94FA
:101B9000D411D6016D937D938D939C93139790925E
:101BA000DA03D701ED91FC91A08DB18D8D919D91BE
:101BB0000D90BC91A02D868F978FA0A3B1A380918B
:101BC000970690919806019688CF720132ECE31A3D
:101BD0003EEFF30AD701ED91FC918081918197FD51
:101BE0000DC0828193810297029740F48481958190
:101BF0008130910551F0029709F47FC0BFEF2B1A95
:101C00003B0AE2E04E0E511CDECCA08DB18D4D9111
:101C10005D916D917C91828D938DA48DB58D4817CA
:101C200059076A077B0751F30E945A03D701ED91C8
:101C3000FC9180889188A288B388AB01BC014819C7
:101C400059096A097B0984859585A685B78521E0B0
:101C5000892B8A2B8B2B29F482859385892B09F478
:101C600020E0822F90E0B0E0A0E084179507A6075F
:101C7000B70720F68081918197FD1FC01F927F9248
:101C8000008CF18DE02D21812F9320812F939F9344
:101C90008F931F926F921F92BCE3BF93E6E9F1E02E
:101CA000FF93EF931F930F930E9476180E94FF04F7
:101CB0000FB6F894DEBF0FBECDBFD701ED91FC91FA
:101CC000A08DB18D8D919D910D90BC91A02D828F95
:101CD000938FA48FB58FF701C080D1800E945A03E3
:101CE000D60150966D937D938D939C935397D70116
:101CF000ED91FC911386128681CFA08DB18D268D3A
:101D0000378D40A151A16D917D918D919C910E9443
:101D1000EC1381116CC0D701ED91FC918285938504
:101D2000892B09F46BCFD701ED91FC91C080D18054
:101D3000D7FC4EC0008CF18DE02D80809180A28078
:101D4000B3801F927F9220E030E048EC52E4C5015E
:101D5000B4010E9452140E94D115CB0164E670E0D8
:101D60000E94071697FF03C09195819591099F9353
:101D70008F93C501B4010E94D1159B0177FF04C068
:101D800022273327261B370B3F932F93DF92CF92C7
:101D90001F926F921F92BCE3BF93E0EBF2E0FF93C0
:101DA000EF931F930F930E9476180FB6F894DEBF3F
:101DB0000FBECDBF20E030E0A901C501B4010E94F3
:101DC000EC1387FF03C05DE2509368040E94FF0498
:101DD000D701ED91FC91A08DB18D8D919D910D90CC
:101DE000BC91A02D868F978FA0A3B1A374CF0E9422
:101DF0005A03D701ED91FC9180889188A288B3881D
:101E0000681979098A099B0984849584A684B78412
:101E100086169706A806B90608F07DCF84CFD12C88
:101E2000C12C28CC89E690E00E94E0053FCCA28539
:101E3000B385109709F43FCC8D919C91248535850D
:101E40008217930709F437CC60817181181619063F
:101E5000BCF48AE690E00E94E005D701ED91FC9188
:101E6000A285B3858D919C91958784870E945A03A2
:101E7000D701ED91FC9166837783808791871BCC96
:101E800089E690E0E8CF80919B0690919C06892B93
:101E900009F438C28091FA029091FB02892B09F46F
:101EA00043C01092F9021092F802E090F802F0900C
:101EB000F902FFEFEF16F10409F074F4B7018BE0BB
:101EC0000E94A3020E9425032FEFE21AF20AF09269
:101ED000F902E092F802E9CF8FEF90E09093F902D7
:101EE0008093F802E090F802F090F902F7FC0EC03F
:101EF000B7018BE00E94A3020E94250331E0E31AA0
:101F0000F108F092F902E092F802ECCF63E086E289
:101F100093E00E941C0463E080E293E00E941C04B2
:101F20001092FB021092FA02C090F002D090F102DF
:101F3000E090F202F090F302A70196016091F402A2
:101F40007091F5028091F6029091F7020E94EC13D5
:101F5000882309F445C020E030E04FE753E4C7018F
:101F6000B6010E94521420E030E0A9010E946515DC
:101F70000E94D1158BE00E94A30220E030E040E4F3
:101F800050E46091F0027091F1028091F202909120
:101F9000F3020E94521420E030E0A9010E9465156E
:101FA0000E94D115F62E6093EE027093EF0286E246
:101FB00093E00E941C046F2D80E293E00E941C04B9
:101FC0008091F0029091F102A091F202B091F3029F
:101FD0008093F4029093F502A093F602B093F70277
:101FE00080911F03823008F09AC1F89484E193E055
:101FF0000E94670360911B0370911C0380911D0375
:1020000090911E03789422E030E040E050E00E947E
:102010001B163093ED022093EC0280911303823063
:1020200008F07FC1F89488E093E00E946703609114
:102030000F03709110038091110390911203789413
:1020400022E030E040E050E00E941B163093EB02AB
:102050002093EA022091EC023091ED0280910E0172
:1020600090910F012817390791F0821793070CF010
:102070005AC18091E8029091E9020E94AA058091DC
:10208000EC029091ED0290930F0180930E0120914C
:10209000EA023091EB0280910C0190910D0128171A
:1020A000390791F0821793070CF042C18091E40246
:1020B0009091E5020E94AA058091EA029091EB02BC
:1020C00090930D0180930C014091DE025091DF024C
:1020D0006091E0027091E102809108019091090104
:1020E000A0910A01B0910B01481759076A077B07B5
:1020F00009F479C0CE0101960E949106BE016F5F7E
:102100007F4F82E093E00E941906CE0101960E9463
:10211000110670E060E082E093E00E94FB0020E0A6
:10212000DC014C9165E070E080E293E00E94FA03EC
:1021300061E070E082E093E00E94FB0020E0FC019F
:10214000408164E070E080E293E00E94FA0362E084
:1021500070E082E093E00E94FB0021E0DC014C9102
:1021600063E070E080E293E00E94FA0363E070E0D5
:1021700082E093E00E94FB0020E0FC01408162E0ED
:1021800070E080E293E00E94FA0364E070E082E095
:1021900093E00E94FB0020E0DC014C9161E070E0E4
:1021A00080E293E00E94FA0365E070E082E093E051
:1021B0000E94FB0020E0FC01408170E060E080E2D2
:1021C00093E00E94FA038091DE029091DF02A091D9
:1021D000E002B091E1028093080190930901A0937D
:1021E0000A01B0930B014091DA025091DB02609139
:1021F000DC027091DD028091040190910501A091B3
:102200000601B0910701481759076A077B0709F4CF
:1022100079C0CE0101960E949106BE016F5F7F4F8B
:102220008CEF92E00E941906CE0101960E941106E1
:1022300070E060E08CEF92E00E94FB0020E0DC01A7
:102240004C9165E070E086E293E00E94FA0361E061
:1022500070E08CEF92E00E94FB0020E0FC014081E6
:1022600064E070E086E293E00E94FA0362E070E0CE
:102270008CEF92E00E94FB0021E0DC014C9163E0D6
:1022800070E086E293E00E94FA0363E070E08CEF76
:1022900092E00E94FB0020E0FC01408162E070E0DF
:1022A00086E293E00E94FA0364E070E08CEF92E033
:1022B0000E94FB0020E0DC014C9161E070E086E2CE
:1022C00093E00E94FA0365E070E08CEF92E00E94D8
:1022D000FB0020E0FC01408170E060E086E293E0DA
:1022E0000E94FA038091DA029091DB02A091DC0255
:1022F000B091DD028093040190930501A093060143
:10230000B093070180E090E0892B09F4F1C80E94A6
:102310007801882309F4ECC80E940000E7C8F8940B
:1023200069CEF89484CE8091E6029091E702A5CE22
:102330008091E2029091E302BDCE8E33910509F4C3
:1023400027C9D5018D935D01BFEFEB1AFB0AE5E9C3
:10235000EE16F10409F0F7C81BC921E030E0309314
:102360009C0620939B061F928EE38F931F9283E619
:102370008F931F928CE38F9385EC92E09F938F93C2
:102380001F930F930E9476180E94FF040FB6F894D3
:10239000DEBF0FBECDBF04C98CEF92E00E941106D4
:1023A00082E093E00C941106662777270C946B1259
:1023B000FC0188279927E89421912032E9F32930FC
:1023C00010F02E30C8F32B3241F02D3239F46894DE
:1023D00004C00E944112820F911D219120532A3086
:1023E000C0F31EF4909581959F4F08951F93FC01B3
:1023F00099278827BC01E89411911032E9F319302C
:1024000010F01E30C8F31B3251F01D3249F46894AD
:1024100006C00E942C12610F711D811D911D11912A
:1024200010531A30B0F33EF49095809570956195F5
:102430007F4F8F4F9F4F1F910895BB272A3051F434
:10244000992342F4BDE290958095709561957F4FF8
:102450008F4F9F4F0C944A12592F482F372F262FFA
:10246000660F771F881F991F660F771F881F991F98
:10247000620F731F841F951F660F771F881F991F98
:1024800008957AE0979F902D879F802D910D1124BC
:102490000895BB27FA01A62F6217710581059105E2
:1024A000330B30FB66F0AA27660F771F881F991F32
:1024B000AA1FA21710F0A21B63953850A9F7A05DC0
:1024C000AA3308F0A95DA19336F7B111B193108238
:1024D000CA010C94DC13B0E0A0E0E1E7F2E10C9457
:1024E00024155C017B016115710519F0DB018D93E9
:1024F0009C9385010F5F1F4FF501D0818D2F90E0D8
:102500000E94BB136C01892BB9F5DD32B9F50F5F61
:102510001F4FD5011196DC91C1E05801F1E0AF1ACF
:10252000B10843E050E060E770E0C5010E94C413C9
:10253000892B69F5680182E0C80ED11C45E050E0A6
:102540006BE670E0C6010E94C413892B21F4680178
:1025500097E0C90ED11CE114F10419F0D701CD9216
:10256000DC9260E070E080E89FEFC111FFC060E0A6
:1025700070E080E89FE7FAC05801BBCFDB3229F456
:1025800085010E5F1F4FF501D181C0E0C6CF43E04A
:1025900050E068E670E0C5010E94C413892BE9F0A1
:1025A000F80110E000E020E030E0A9015F01B0EDAB
:1025B0008B2E8D0E89E08815C8F19C2E689491F8B9
:1025C0008C2F8870C2FF16C0811102C00F5F1F4F91
:1025D0003196D501DC91C92DE9CFE114F10429F040
:1025E0000E5F1F4FF7011183008360E070E080EC05
:1025F0009FE7BCC0882311F001501109A5E0B0E0AD
:102600000E9413159B01AC01220F331F441F551F5D
:10261000280D311D411D511D283999E939074907F8
:1026200099E15907A8F2C6609C2ED2CFAEEF8A126C
:1026300006C0C3FD3CC09C2E689493F8C9CFDF7DD3
:10264000D534A9F580818D3239F4C061DF0112964D
:10265000818162E070E006C0DF018B32C1F3119628
:1026600061E070E080535D01A61AB70A8A30F8F481
:10267000E0E8CE16ECE0DE065CF4B601660F771FEC
:10268000660F771FC60ED71ECC0CDD1CC80ED11CE2
:102690005D01FFEFAF1ABF0A8C9180538A30A8F119
:1026A000C4FF03C0D194C194D1080C0D1D1DC1FFFE
:1026B00009C0E114F10431F081E0A81AB108D70192
:1026C000AD92BC92CA01B9010E94F113C370C3302C
:1026D00009F490584B015C0120E030E0A9010E9410
:1026E000EC13882309F440C0CFE9D0E017FF05C000
:1026F000119501951109C7E8D0E06E01B8E1CB1A38
:10270000D10880E2E82EF12C0FC0D501B1CFFE0137
:1027100025913591459154910E191F09C501B401B8
:102720000E9452144B015C01D501C4010E151F0516
:1027300074F72497F594E794CC16DD06A9F78A2F51
:10274000880F8B2F881F8F3F49F020E030E0A901D0
:10275000C501B4010E94EC13811106C082E290E031
:1027600090939E0680939D06C501B401CDB7DEB758
:10277000ECE00C94401591110C94BF14803219F0C8
:1027800089508550C8F70895FB01DC014150504045
:1027900088F08D9181341CF08B350CF4805E65914E
:1027A00061341CF06B350CF4605E861B611171F3B3
:1027B000990B0895881BFCCFDC01FC01672F7191F8
:1027C0007723E1F7329704C07C916D937083629117
:1027D000AE17BF07C8F308950E942E1408F481E0D5
:1027E0000895E89409C097FB3EF490958095709504
:1027F00061957F4F8F4F9F4F9923A9F0F92F96E94D
:10280000BB279395F695879577956795B795F111C1
:10281000F8CFFAF4BB0F11F460FF1BC06F5F7F4F5E
:102820008F4F9F4F16C0882311F096E911C0772370
:1028300021F09EE8872F762F05C0662371F096E879
:10284000862F70E060E02AF09A95660F771F881F48
:10285000DAF7880F9695879597F90895990F0008EC
:10286000550FAA0BE0E8FEEF16161706E807F90762
:10287000C0F012161306E407F50798F0621B730BFD
:10288000840B950B39F40A2661F0232B242B252B7E
:1028900021F408950A2609F4A140A6958FEF811D21
:1028A000811D08950E9465140C94D9140E94CB14C4
:1028B00038F00E94D21420F0952311F00C94C21429
:1028C0000C94C81411240C940D150E94EA1470F392
:1028D000959FC1F3950F50E0551F629FF001729FC5
:1028E000BB27F00DB11D639FAA27F00DB11DAA1FD4
:1028F000649F6627B00DA11D661F829F2227B00D21
:10290000A11D621F739FB00DA11D621F839FA00DAB
:10291000611D221F749F3327A00D611D231F849FFB
:10292000600D211D822F762F6A2F11249F57504052
:102930009AF0F1F088234AF0EE0FFF1FBB1F661FCD
:10294000771F881F91505040A9F79E3F510580F096
:102950000C94C2140C940D155F3FE4F3983ED4F32D
:10296000869577956795B795F795E7959F5FC1F73A
:10297000FE2B880F911D9695879597F908959927B5
:102980008827089597F99F6780E870E060E00895D0
:102990009FEF80EC089500240A9416161706180677
:1029A0000906089500240A94121613061406050653
:1029B0000895092E0394000C11F4882352F0BB0FE4
:1029C00040F4BF2B11F460FF04C06F5F7F4F8F4F47
:1029D0009F4F089557FD9058440F551F59F05F3F82
:1029E00071F04795880F97FB991F61F09F3F79F031
:1029F00087950895121613061406551FF2CF4695B3
:102A0000F1DF08C0161617061806991FF1CF869534
:102A10007105610508940895E894BB276627772718
:102A2000CB0197F908950E945515A59F900DB49F6D
:102A3000900DA49F800D911D112408952F923F9217
:102A40004F925F926F927F928F929F92AF92BF92BE
:102A5000CF92DF92EF92FF920F931F93CF93DF936A
:102A6000CDB7DEB7CA1BDB0B0FB6F894DEBF0FBEC7
:102A7000CDBF09942A88398848885F846E847D8414
:102A80008C849B84AA84B984C884DF80EE80FD8016
:102A90000C811B81AA81B981CE0FD11D0FB6F8948C
:102AA000DEBF0FBECDBFED010895A29FB001B39F61
:102AB000C001A39F700D811D1124911DB29F700D47
:102AC000811D1124911D08955058BB27AA270E94EB
:102AD0007C150C94D9140E94CB1438F00E94D214A7
:102AE00020F039F49F3F19F426F40C94C8140EF426
:102AF000E095E7FB0C94C214E92F0E94EA1458F306
:102B0000BA17620773078407950720F079F4A6F5D2
:102B10000C940C150EF4E0950B2EBA2FA02D0B0182
:102B2000B90190010C01CA01A0011124FF27591B12
:102B300099F0593F50F4503E68F11A16F040A22F18
:102B4000232F342F4427585FF3CF46953795279589
:102B5000A795F0405395C9F77EF41F16BA0B620B88
:102B6000730B840BBAF09150A1F0FF0FBB1F661FCF
:102B7000771F881FC2F70EC0BA0F621F731F841F12
:102B800048F4879577956795B795F7959E3F08F038
:102B9000B0CF9395880F08F09927EE0F97958795FA
:102BA00008950E94D8156894B1110C940D150895DC
:102BB0000E94F21488F09F5798F0B92F9927B751C7
:102BC000B0F0E1F0660F771F881F991F1AF0BA95D1
:102BD000C9F714C0B13091F00E940C15B1E008950E
:102BE0000C940C15672F782F8827B85F39F0B93F00
:102BF000CCF3869577956795B395D9F73EF4909584
:102C00008095709561957F4F8F4F9F4F089597FBEB
:102C1000072E16F4009407D077FD09D00E943A16CB
:102C200007FC05D03EF4909581959F4F08957095CF
:102C300061957F4F0895052E97FB1EF400940E9426
:102C4000321657FD07D00E944E1607FC03D04EF4F3
:102C50000C94321650954095309521953F4F4F4F2B
:102C60005F4F089590958095709561957F4F8F4F38
:102C70009F4F0895AA1BBB1B51E107C0AA1FBB1F92
:102C8000A617B70710F0A61BB70B881F991F5A95F8
:102C9000A9F780959095BC01CD010895A1E21A2E67
:102CA000AA1BBB1BFD010DC0AA1FBB1FEE1FFF1FF0
:102CB000A217B307E407F50720F0A21BB30BE40B40
:102CC000F50B661F771F881F991F1A9469F7609587
:102CD0007095809590959B01AC01BD01CF01089541
:102CE000EE0FFF1F0590F491E02D09940F931F93B1
:102CF000CF93DF938230910510F482E090E0E09171
:102D0000A106F091A20630E020E0B0E0A0E030970C
:102D100099F42115310509F44AC0281B390B2430D8
:102D20003105D8F58A819B816115710589F1FB0117
:102D300093838283FE0111C04081518102811381FE
:102D400048175907E0F04817590799F4109761F0B0
:102D500012960C93129713961C933296CF01DF9123
:102D6000CF911F910F9108950093A1061093A20691
:102D7000F4CF2115310551F04217530738F0A9015E
:102D8000DB019A01BD01DF01F801C1CFEF01F9CFED
:102D90009093A2068093A106CDCFFE01E20FF31F10
:102DA000819391932250310939832883D7CF209181
:102DB0009F063091A006232B41F4209112013091FF
:102DC00013013093A00620939F06209110013091AB
:102DD00011012115310541F42DB73EB74091140181
:102DE00050911501241B350BE0919F06F091A00630
:102DF000E217F307A0F42E1B3F0B2817390778F0D2
:102E0000AC014E5F5F4F2417350748F04E0F5F1F30
:102E10005093A00640939F06819391939FCFF0E03B
:102E2000E0E09CCFCF93DF930097E9F0FC0132976D
:102E300013821282A091A106B091A206ED0130E0AA
:102E400020E01097A1F420813181820F931F2091FF
:102E50009F063091A0062817390709F061C0F0934A
:102E6000A006E0939F06DF91CF910895EA01CE1767
:102E7000DF07E8F54A815B819E0141155105B1F7F5
:102E8000E901FB83EA8349915991C40FD51FEC17DF
:102E9000FD0761F4808191810296840F951FE901FD
:102EA00099838883828193819B838A83F0E0E0E029
:102EB00012968D919C9113970097B9F52D913C91A5
:102EC0001197CD010296820F931F20919F0630919A
:102ED000A0062817390739F6309751F51092A20647
:102EE0001092A106B093A006A0939F06BCCFD383F7
:102EF000C28340815181840F951FC817D90761F49F
:102F00004E5F5F4F88819981480F591F51834083DD
:102F10008A819B81938382832115310509F0B0CF8B
:102F2000F093A206E093A1069ECFFD01DC01C0CF85
:102F300013821282D7CFB0E0A0E0E1EAF7E10C946F
:102F400020158C01009751F4CB010E9476168C015C
:102F5000C801CDB7DEB7E0E10C943C15FC01E60FEB
:102F6000F71F9C0122503109E217F30708F49DC0B6
:102F7000D901CD91DC911197C617D70798F0C530CC
:102F8000D10530F3CE0104978617970708F3C61BC7
:102F9000D70B2297C193D1936D937C93CF010E945D
:102FA0001217D6CF5B01AC1ABD0A4C018C0E9D1EC8
:102FB000A091A106B091A206512C412CF12CE12C3C
:102FC000109731F580919F069091A006881599057C
:102FD00009F05CC04616570608F058C080911001F1
:102FE00090911101009741F48DB79EB74091140163
:102FF00050911501841B950BE817F90708F055C08F
:10300000F093A006E0939F06F90171836083A0CF3F
:103010008D919C91119712966C90129713967C90BB
:103020001397A815B90559F56C0142E0C40ED11CDF
:10303000CA14DB0420F1AC014A195B09DA011296CB
:10304000159780F06282738251834083D9016D931A
:103050007C93E114F10471F0D7011396FC93EE9385
:10306000129776CF22968C0F9D1FF9019183808352
:10307000F301EFCFF093A206E093A10669CF4816C3
:10308000590608F42C017D01D3019ACFCB010E948F
:1030900076167C01009749F0AE01B8010E945818DD
:1030A000C8010E941217870153CF10E000E050CFF3
:1030B000FB01DC0102C001900D9241505040D8F755
:1030C0000895FB01DC0101900D920020E1F70895C5
:1030D000FB01DC014150504030F08D91019080198E
:1030E00019F40020B9F7881B990B0895AEE0B0E001
:1030F000ECE7F8E10C942C150D891E8986E08C8391
:103100001A8309838FEF9FE79E838D83AE01475E0D
:103110005F4F6F89788DCE0101960E9499182F819B
:103120003885020F131FF80110822E96E4E00C94EC
:103130004815ABE0B0E0EFE9F8E10C941E157C0116
:103140003B018A01FC0117821682838181FFC8C17D
:10315000CE0101965C01F7019381F30193FD859106
:1031600093FF81913F01882309F453C1853239F4DB
:1031700093FD859193FF81913F01853229F4B70139
:1031800090E00E94891AE7CF912C212C312CFFE18D
:10319000F31538F08B3211F190F4803209F183325B
:1031A00029F137FC3CC020ED280F2A3050F536FEBF
:1031B00020C08AE0989E200D1124922E06C08D32E8
:1031C00091F0803371F7689430F8F30193FD8591A5
:1031D00093FF81913F018111DACF21C0689431F8CA
:1031E000689432F8F2CF689433F8EFCF689434F8EB
:1031F000ECCFEAE02E9E200D1124222E689435F8A3
:10320000E4CF8E3229F436FC04C1689436F8DDCF61
:103210008C3619F4689437F8D8CF8836B1F2982FE5
:103220009F7D95549330E0F08336A1F18337C1F14F
:10323000833509F063C02801F2E04F0E511CF801FC
:10324000C080D180692D70E036FC02C06FEF7FEF47
:10325000C6010E94731A4C01689437F882010AC0B3
:103260000C5F1F4FFFE3F98388248394912C650141
:10327000E89437F833FE2DC0522C8114910471F577
:10328000552009F468CFB70180E290E00E94891AC6
:103290005A94F6CFF801808189830E5F1F4FE4CFE7
:1032A0002801F2E04F0E511CF801C080D180692D39
:1032B00070E036FC02C06FEF7FEFC6010E947E1AFD
:1032C0004C018201D5CFB70180E290E00E94891ABB
:1032D0002A942814190409F0B0F7CECFF60137FC70
:1032E000859137FE81916F01B70190E00E94891AA4
:1032F00051105A94F1E08F1A9108BFCF843619F01B
:10330000893609F077C0F80137FE6BC060817181A2
:10331000828193810C5F1F4FF32DFF763F2E97FF25
:1033200009C090958095709561957F4F8F4F9F4F05
:10333000689437F82AE030E0A5010E94B91AC82E37
:10334000CA188C2C432C36FE0CC0E89440F8C914E3
:1033500040F434FE05C032FC03C0F32DFE7E4F2E38
:10336000892C44FE95C0FE01EC0DF11D8081803357
:1033700009F087C0242D297E422E842D8870582E76
:1033800043FC95C040FE8FC09C2C821418F42C0C7A
:10339000922C981844FE91C0B70180E390E00E94FF
:1033A000891A42FE09C088E790E041FE02C088E524
:1033B00090E0B7010E94891AC91408F48AC0CA941F
:1033C000D12C9FEFC91AD90ACA0CDB1CF6018291D5
:1033D0006F01B70190E00E94891AAC14BD04B1F7E7
:1033E0004FCF60817181072E000C880B990B0E5F07
:1033F0001F4F92CFD32CE894D4F82AE030E08537E1
:1034000039F1232D297FD22E8F3601F148F48835EA
:10341000A9F0F701868197812B96E2E10C943A1589
:10342000803749F08837A9F7D4FE02C06894D2F8F3
:1034300020E130E00DC06894D4F8F6CF34FE03C02C
:10344000822F8660D82E20E132E002C028E030E0F2
:10345000F801D7FE0FC060817181828193810C5F7A
:103460001F4FA5010E94B91AC82ECA183D2CE89416
:1034700037F867CF6081718190E080E00E5F1F4F69
:10348000F0CF42FC02C0839478CF8394839475CFAD
:10349000842D867809F471CFF6CFB70180E290E0F1
:1034A0000E94891A83948214C0F3512C73CF522C3A
:1034B0005818821408F46ECFF8CF842D867809F45A
:1034C0007BCF8BE241FE80E247FC8DE2B70190E0CA
:1034D00071CFB70180E390E00E94891A9A946CCF73
:1034E0008FEF9FEF99CFFC01059061507040011064
:1034F000D8F7809590958E0F9F1F0895FC0161501D
:10350000704001900110D8F7809590958E0F9F1F05
:1035100008950F931F93CF93DF93182F092FEB017B
:103520008B8181FD09C01FEF0FEF812F902FDF915D
:10353000CF911F910F91089582FF14C02E813F817A
:103540008C819D81281739073CF4E881F981CF01EE
:1035500001969983888310838E819F8101969F8332
:103560008E83E3CFE885F985812F0995892BA1F317
:10357000DACFFA01AA27283051F1203181F1E894FD
:103580006F936E7F6E5F7F4F8F4F9F4FAF4FB1E056
:103590003ED0B4E03CD0670F781F891F9A1FA11D51
:1035A000680F791F8A1F911DA11D6A0F711D811D52
:1035B000911DA11D20D009F468943F912AE0269F17
:1035C00011243019305D3193DEF6CF010895462F76
:1035D0004770405D4193B3E00FD0C9F7F6CF462F57
:1035E0004F70405D4A3318F0495D31FD40524193C0
:1035F00002D0A9F7EACFB4E0A6959795879577957D
:103600006795BA95C9F700976105710508959B0103
:10361000AC010A2E06945795479537952795BA958C
:10362000C9F7620F731F841F951FA01D089510E036
:10363000C0EDD0E004C0FE010E9470162196C13D8D
:08364000D107C9F7F894FFCF90
:1036480066036603FFFFFFFFFFFFFFFFFFFFFFFFAC
:103658000000A30680004177427F434E447E454FD9
:103668004647475E483749304A3C4C0E4E764F7EB7
:1036780050675205535B540F553E59275B4E5D7892
:103688005F086177621F630D643D654F6647675E3B
:10369800681769106A3C6C0E6E156F7E706772054C
:1036A800735B740F751C79272D012000307E313033
:1036B800326D33793433355B365F3770387F397B19
:1036C800300000000000AE010E013B01FB016C015F
:1036D8004A015E0120002563256325332E336925C1
:1036E800692563002563256325332E336925630027
:1036F800434F524500726561647900434F5245203B
:1037080043505420434F4D4D2050414E454C00737B
:10371800696D2F636F636B706974322F72616469AE
:103728006F732F6163747561746F72732F636F6D3C
:10373800315F6672657175656E63795F687A5F3847
:1037480033330073696D2F636F636B706974322F45
:10375800726164696F732F6163747561746F7273DA
:103768002F636F6D315F7374616E6462795F667227
:10377800657175656E63795F687A5F383333006C9D
:10378800616D696E61722F423733382F656C6563DE
:10379800747269632F70616E656C5F6272696768C5
:1037A800746E65737300256325632573256300258F
:1037B80063256325312E316925322E32692530354E
:1037C800692E253032692573256300256325632515
:1037D800312E316925322E3269253035692E253052
:1037E8003269255325630025632563255325630026
:1037F8002563256325332E3369253037692E253017
:0C380800326925630025632563256300F9
:00000001FF
