:100000000C94CE010C949E0A0C94730A0C94480A2A
:100010000C941D0A0C94F2090C94C7090C949C09C9
:100020000C9471090C94FF010C94FF010C94FF01D6
:100030000C94FF010C94FF010C94FF010C94FF0140
:100040000C94FF010C94FF010C94FF010C94FF0130
:100050000C94FF010C94FF010C94FF010C942709F0
:100060000C94FF010C94F1080C94C7080C94FF0148
:100070000C94FF010C94FF010C94FF010C94FF0100
:100080000C94FF010C94FF010C94FF010C94FF01F0
:100090000C94FF010C94FF010C94FF010C94FF01E0
:1000A0000C94FF010C94FF010C94FF010C94FF01D0
:1000B0000C94FF010C94FF010C94FF010C94FF01C0
:1000C0000C94FF010C94FF010C94FF010C94FF01B0
:1000D0000C94FF010C94FF010C94FF010C94FF01A0
:1000E0000C94FF010C947B030C9481040C949F04EA
:1000F0000C9481030C949D030C9470030C94AE0437
:100100000C9467040C944B050C9499030C94F7021F
:100110000C9441020C9466030C9474030C948503B4
:100120000C9478030C94CC040C94A7030C948B04CB
:100130000C948B030C946C030C94D6040C94690BF4
:100140000C94E0040C9446040C948F030C94B804B3
:100150000C9450020C9472020C9414020C947104CE
:100160000C94AA020C94AB030C9495040C946402B6
:100170000C94A6050C94A6030C94C2040C944E0493
:100180000C945D040C9493030C94A1030C94AC05A3
:100190000C9453040C9400150C9479044E414E4970
:1001A0004E495459494E46CDCCCC3D0AD7233C1735
:1001B000B7D13877CC2B329595E6241FB14F0A0082
:1001C0000020410000C84200401C4620BCBE4CCA72
:1001D0001B0E5AAEC59D7400002100240027002A82
:1001E000002D003000330001010000040107010A66
:1001F0000100002200250028002B002E00310034D1
:100200000002010000050108010B0173696D2F72E6
:100210006164696F732F737462795F636F6D315FAF
:1002200066696E655F646F776E5F3833330073693C
:100230006D2F726164696F732F737462795F636F7E
:100240006D315F66696E655F75705F38333300735B
:10025000696D2F726164696F732F737462795F6364
:100260006F6D315F636F617273655F646F776E008E
:1002700073696D2F726164696F732F737462795F34
:10028000636F6D315F636F617273655F757000736B
:10029000696D2F726164696F732F636F6D315F7366
:1002A00074616E64795F666C6970000000200023E1
:1002B00000260029002C002F00320000010000035E
:1002C00001060109010505050507050808080802DA
:1002D0000202020A0A0808040404040101010101DF
:1002E0000101010303030303030303040707070CCE
:1002F0000C0C0C0C0C0C0C02020202060606060684
:100300000606060B0B0B0B0B0B0B0B010210202030
:100310000808102040102040800201020108040259
:1003200001010204081020408080402010080402CF
:100330000180040201804020100804020108040228
:10034000010102040810204080010204081020402E
:100350008000000A0B02090C0D0E080703040100BF
:10036000000000000000000000000000000000008D
:10037000000000000000000000000000001211104A
:10038000000000000000000000000000000000006D
:100390000000000000000000690B001511241FBEC2
:1003A000CFEFD1E2DEBFCDBF00E00CBF27E0AAED6A
:1003B000B3E001C01D92A73BB207E1F713E0A0E054
:1003C000B2E0EEE1FDE300E00BBF02C007900D924A
:1003D000AA3DB107D9F711E0CDECD1E000E006C0AD
:1003E00021970109802FFE010E944519CC3CD107BD
:1003F00080E00807A9F70E94FB0B0C947D1E0C946B
:100400000000FC01248135816217730720F480818C
:100410009181009729F41092EF038FEE93E00895F5
:10042000860F971F08950895AF92BF92CF92DF92E3
:10043000EF92FF920F931F93CF93DF936C017B0199
:100440008B01040F151FEB015E01AE18BF08C0172A
:10045000D10759F06991D601ED91FC910190F0819D
:10046000E02DC6011995892B79F7C501DF91CF9150
:100470001F910F91FF90EF90DF90CF90BF90AF90C2
:100480000895FC01538D448D252F30E0842F90E09A
:10049000821B930B541710F0CF960895019708957F
:1004A000FC01918D828D981761F0A28DAE0FBF2F48
:1004B000B11D5D968C91928D9F5F9F73928F90E09E
:1004C00008958FEF9FEF0895FC01918D828D98170D
:1004D00031F0828DE80FF11D858D90E008958FEF4A
:1004E0009FEF0895FC01918D228D892F90E0805C13
:1004F0009F4F821B91098F739927089580E494E0A0
:100500000E94720221E0892B09F420E0822F0895D5
:10051000FC01A48DA80FB92FB11DA35ABF4F2C9178
:10052000848D90E001968F739927848FA689B7896F
:100530002C93A089B1898C91837080648C93938D66
:10054000848D981306C00288F389E02D80818F7D09
:1005500080830895EF92FF920F931F93CF93DF93C1
:10056000EC0181E0888F9B8D8C8D98131AC0E889EF
:10057000F989808185FF15C09FB7F894EE89FF89BE
:100580006083E889F98980818370806480839FBF5C
:1005900081E090E0DF91CF911F910F91FF90EF905C
:1005A0000895F62E0B8D10E00F5F1F4F0F7311276C
:1005B000E02E8C8D8E110CC00FB607FCFACFE889A7
:1005C000F989808185FFF5CFCE010E948802F1CFA5
:1005D000EB8DEC0FFD2FF11DE35AFF4FF0829FB71B
:1005E000F8940B8FEA89FB8980818062CFCFCF930B
:1005F000DF93EC01888D8823B9F0AA89BB89E8894B
:10060000F9898C9185FD03C0808186FD0DC00FB6F0
:1006100007FCF7CF8C9185FFF2CF808185FFEDCF6E
:10062000CE010E948802E9CFDF91CF91089580E04A
:1006300090E0892B29F00E947E0281110E94000027
:1006400080E090E0892B49F080E090E0892B29F050
:100650000E94000081110E94000080E090E0892B40
:1006600049F080E090E0892B29F00E940000811180
:100670000E94000080E090E0892B49F080E090E04B
:10068000892B29F00E94000081110C94000008952C
:100690008150823108F05AC0E82FF0E08827EC5AE8
:1006A000FC4F8F4F0C9445197403780366036C0359
:1006B0007003A6037B03810385038B038F039303DE
:1006C00099039D03A603A103A703AB0380918000B8
:1006D0008F77809380000895809180008F7DF9CF7F
:1006E00080918000877FF5CF84B58F7784BD089592
:1006F00084B58F7DFBCF8091B0008F778093B00061
:1007000008958091B0008F7DF9CF809190008F7710
:10071000809390000895809190008F7DF9CF809113
:100720009000877FF5CF8091A0008F778093A00005
:1007300008958091A0008F7DF9CF8091A000877FE0
:10074000F5CF809120018F778093200108958091CB
:1007500020018F7DF9CF80912001877FF5CF1F93F6
:10076000CF93DF93282F30E0F901EF5AFC4F8491AB
:10077000F901E55FFC4FD491F901EB53FD4FC491B2
:10078000CC23A9F0162F81110E944803EC2FF0E032
:10079000EE0FFF1FEF50FE4FA591B4918FB7F89465
:1007A000EC91111108C0D095DE23DC938FBFDF914F
:1007B000CF911F910895DE2BF8CFCF93DF9390E078
:1007C000FC01E55FFC4F24918B539D4FFC0184910C
:1007D0008823D1F090E0880F991FFC01E952FE4F69
:1007E000A591B491FC01EF50FE4FC591D4916230B8
:1007F00071F49FB7F8943C91822F809583238C935A
:10080000E8812E2B28839FBFDF91CF9108958FB76A
:10081000F894EC912E2B2C938FBFF6CF1F93CF9390
:10082000DF93182FEB0161E00E94DD03209739F47C
:1008300060E0812FDF91CF911F910C94AF03CF3FE8
:10084000D10511F461E0F5CFE12FF0E0EF5AFC4F54
:10085000E491E150E23108F0B3C0F0E08827EC5CAD
:10086000FB4F8F4F0C94451946044E0453045D040E
:100870006704E0047104790481048B0495049F04E7
:10088000AE04B804E004C204CC04D60484B5806885
:1008900084BDC7BDDF91CF911F91089584B580625B
:1008A00084BDC8BDF7CF80918000806880938000B0
:1008B000D0938900C0938800EDCF80918000806242
:1008C00080938000D0938B00C0938A00E3CF809107
:1008D0008000886080938000D0938D00C0938C004E
:1008E000D9CF8091B00080688093B000C093B300EE
:1008F000D1CF8091B00080628093B000C093B400EB
:10090000C9CF80919000806880939000D093990027
:10091000C0939800BFCF8091900080628093900038
:10092000D0939B00C0939A00B5CF809190008860CF
:1009300080939000D0939D00C0939C00ABCF80919A
:10094000A00080688093A0008091A0008F7B80939E
:10095000A000D093A900C093A8009CCF8091A000D4
:1009600080628093A000D093AB00C093AA0092CF86
:100970008091A00088608093A000D093AD00C093C8
:10098000AC0088CF80912001806880932001D093B3
:100990002901C09328017ECF80912001806280933D
:1009A0002001D0932B01C0932A0174CF80912001A4
:1009B000886080932001D0932D01C0932C016ACFD1
:1009C000C038D1050CF03ECF33CF3FB7F8948091BB
:1009D000EB039091EC03A091ED03B091EE0326B5EB
:1009E000A89B05C02F3F19F00196A11DB11D3FBF67
:1009F000BA2FA92F982F8827BC01CD01620F711D36
:100A0000811D911D42E0660F771F881F991F4A952F
:100A1000D1F708958F929F92AF92BF92CF92DF92BB
:100A2000EF92FF920E94E5044B015C018FE0C82E1B
:100A3000D12CE12CF12C0E94E504681979098A096E
:100A40009B09683E734081059105A8F321E0C21A15
:100A5000D108E108F10888EE880E83E0981EA11CF9
:100A6000B11CC114D104E104F10429F7FF90EF9007
:100A7000DF90CF90BF90AF909F908F9008952FB749
:100A8000F8946091E7037091E8038091E9039091F5
:100A9000EA032FBF08950895DC01ED91FD91808157
:100AA000ED91FD919081ED91FD916C9163708E239C
:100AB00009F064609F2309F06860E9E6F5E0E60F5D
:100AC000F11D659565956D936D917D918D919D91CC
:100AD000099423C01AC012C016C010C01EC009C09D
:100AE00014C013C006C019C009C00DC007C00DC096
:100AF00014C062507040804090400BC06150704004
:100B00008040904006C06E5F01C06F5F7F4F8F4F87
:100B10009F4F9E938E937E936E9308958091E403EE
:100B20009091E5030C944C058091E2039091E303CE
:100B30000C944C058091E0039091E1030C944C05DA
:100B40008091DE039091DF030C944C058091DC03CF
:100B50009091DD030C944C058091DA039091DB03B6
:100B60000C944C050F931F93CF93DF93082F162FF0
:100B7000D42FC8E06D2F661F6627661F802F0E9446
:100B8000AF03DD0F61E0812F0E94AF0360E0812F92
:100B90000E94AF03C15071F7DF91CF911F910F9168
:100BA00008950F931F93CF93DF931F921F92CDB79A
:100BB000DEB78C0169834A8360E0FC0182810E9478
:100BC000AF034981F801608184810E94B2054A81A6
:100BD000F801608184810E94B20561E0F8018281A0
:100BE0000F900F90DF91CF911F910F910C94AF0355
:100BF0003DED340F3A30B0F030E0A4E2B2E0F0E086
:100C0000E0E05C915523A1F0129654130FC0EE0F53
:100C1000FF1FEC5DFD4F4181232B09F040686F5FA2
:100C20000C94D105435F21E030E0E7CF3196E9CF66
:100C300040E0F5CF462F4F706AE00C94D1050F933A
:100C40001F93CF938C01C1E040E06C2FC8010E943C
:100C5000D105CF5FC930C1F7CF911F910F91089592
:100C6000CF93DF93EC0161E08A810E94AF0347E0FC
:100C70006BE0CE010E94D10540E069E0CE010E9408
:100C8000D10541E06CE0CE010E94D10540E06FE06B
:100C9000CE010E94D105CE010E941F066FE0CE0159
:100CA000DF91CF910C941A066F927F928F929F9250
:100CB000AF92BF92CF92DF92EF92FF920F931F936A
:100CC000CF93DF93CDB7DEB7E0970FB6F894DEBFD2
:100CD0000FBECDBF4C011AA219A2FE01B3968EE041
:100CE000DF011D928A95E9F7FB0101900020E9F7E9
:100CF000CF010197861B970B8131910510F080E1A0
:100D000090E0DB0110E000E021E030E0AD01461BA7
:100D1000570B481759072CF54D914E3269F4F801DD
:100D20003197EE0FFF1F41E050E04C0F5D1FE40FC5
:100D3000F51F31832083EACFE1E2F0E0EC0FFD1FE5
:100D4000E00FF11F4083F801EE0FFF1F41E050E07C
:100D50004C0F5D1FE40FF51F118210820F5F1F4FB4
:100D6000D5CF0930110514F008E010E0CE0101964E
:100D70007C015E0191E2A90EB11C650138016A0C8B
:100D80007B1CC6018A199B098017910794F4D7012F
:100D90008D919D917D01F60141916F0121E0892B9B
:100DA00009F420E0B3016C197D09C4010E94F80523
:100DB000E8CFE0960FB6F894DEBF0FBECDBFDF914F
:100DC000CF911F910F91FF90EF90DF90CF90BF9048
:100DD000AF909F908F907F906F900895FB0101904E
:100DE0000020E9F73197AF01461B570BDC01ED916D
:100DF000FC910280F381E02D199467E775E0809102
:100E0000DD049091DE040E94EE06E7E7F5E0019034
:100E10000020E9F7E85BF54041F462EA72E0809176
:100E2000DD049091DE040C94EE0608950F931F9359
:100E3000CF93DF93C091AD07D091AE07C436D105F3
:100E40006CF58C0180E190E00E948319FC01DE01C9
:100E5000AA0FBB1FAD51B94FED93FC9315830483CB
:100E6000138212821386128681E090E09587848730
:100E70008FEF9FEF9183808397878687CE010196BE
:100E80009093AE078093AD071092B0071092AF0712
:100E9000CE01DF91CF911F910F910895CFEFDFEF3A
:100EA000F7CFEF92FF920F931F93CF93DF93C091F1
:100EB000AB07D091AC07C436D1050CF046C08B010E
:100EC0007C0184E290E00E948319FC01DE01AA0FFC
:100ED000BB1FA55EB94FED93FC93178A168AF58A5E
:100EE000E48A81E090E09383828340E050E060E810
:100EF0007FE346835783608771874AE050E060E074
:100F000070E0448755876687778795838483118F40
:100F1000008F128E138E148E158E13A212A28FEFD5
:100F20009FEF91838083CE0101969093AC078093CD
:100F3000AB071092B0071092AF07CE01DF91CF91AF
:100F40001F910F91FF90EF900895CFEFDFEFF5CF56
:100F5000880F991FFC01ED51F94F0190F081E02DB0
:100F6000309749F18081918197FD22C01F922EE335
:100F70002F931F9221E02F939F938F931F928BE6C5
:100F80008F931F928CE38F9384EA92E09F938F93C9
:100F900087E795E09F938F930E94A71B0E94FD0611
:100FA0008DB79EB70E960FB6F8949EBF0FBE8DBF3D
:100FB00090E080E008958FEF9FEF089577FD1EC0C9
:100FC0001F922EE32F937F936F939F938F931F9284
:100FD0008CE38F9382EB92E09F938F9387E795E06A
:100FE0009F938F930E94A71B8DB79EB70C960FB649
:100FF000F8949EBF0FBE8DBF0C94FD0608951F93FD
:10100000CF93DF93CDEDD4E01F811F8281EE94E07A
:101010000E940C151F83DF91CF911F910895FC0151
:1010200080819181009711F00C941F1A08950F93FD
:101030001F93CF93DF938C01EB01FC0180819181A1
:101040000097E1F06881798161157105A9F042810D
:1010500053812C813D814217530770F00E94921BEF
:101060008C819D81F801958384831D821C82DF9190
:10107000CF911F910F9108950E941F1A8881998125
:10108000F801918380838A819B81938382838C8101
:101090009D8195838483198218821B821A82E5CFF1
:1010A000EF92FF920F931F93CF93DF93EC017B019D
:1010B0008A0188819981009729F02A813B81241730
:1010C000350788F4B8016F5F7F4F0E94A81A009718
:1010D00091F0998388831B830A832C813D81232B84
:1010E00011F4FC0110821D830C83B7018881998162
:1010F0000E94921B0CC088819981009711F00E9478
:101100001F1A198218821D821C821B821A82CE012C
:10111000DF91CF911F910F91FF90EF900895EF9283
:10112000FF920F931F93CF93DF93CDB7DEB7A297B4
:101130000FB6F894DEBF0FBECDBF8C01CB01BA0154
:10114000F8011182108213821282158214822AE021
:10115000AE014F5F5F4F7A010E945115F701019078
:101160000020E9F73197AF014E195F09B701C801B7
:101170000E945008A2960FB6F894DEBF0FBECDBFF6
:10118000DF91CF911F910F91FF90EF9008951F92E3
:101190000F920FB60F9211240BB60F922F933F931D
:1011A0004F935F936F937F938F939F93AF93BF936F
:1011B000EF93FF9380E494E00E948802FF91EF9107
:1011C000BF91AF919F918F917F916F915F914F915F
:1011D0003F912F910F900BBE0F900FBE0F901F905D
:1011E00018951F920F920FB60F9211240BB60F9203
:1011F0002F938F939F93EF93FF93E0915004F0917F
:1012000051048081E0915604F091570482FD1DC085
:101210009081809159048F5F8F7320915A048217B7
:1012200041F0E0915904F0E0E05CFB4F958F809332
:101230005904FF91EF919F918F912F910F900BBEC9
:101240000F900FBE0F901F9018958081F2CF1F92C4
:101250000F920FB60F9211242F933F938F939F936A
:10126000AF93BF938091E7039091E803A091E903C6
:10127000B091EA033091E60323E0230F2D3758F5B0
:101280000196A11DB11D2093E6038093E70390937F
:10129000E803A093E903B093EA038091EB039091F4
:1012A000EC03A091ED03B091EE030196A11DB11DD9
:1012B0008093EB039093EC03A093ED03B093EE03C4
:1012C000BF91AF919F918F913F912F910F900FBE42
:1012D0000F901F90189526E8230F0296A11DB11DAF
:1012E000D2CF1F920F920FB60F9211240BB60F920E
:1012F0002F933F934F935F936F937F938F939F931E
:10130000AF93BF93EF93FF93E0910E02F0910F0222
:101310001995FF91EF91BF91AF919F918F917F911F
:101320006F915F914F913F912F910F900BBE0F9056
:101330000FBE0F901F9018951F920F920FB60F922D
:1013400011240BB60F922F933F934F935F936F939C
:101350007F938F939F93AF93BF93EF93FF93E0910E
:101360000C02F0910D021995FF91EF91BF91AF9191
:101370009F918F917F916F915F914F913F912F91AD
:101380000F900BBE0F900FBE0F901F9018951F92DD
:101390000F920FB60F9211240BB60F922F933F931B
:1013A0004F935F936F937F938F939F93AF93BF936D
:1013B000EF93FF93E0910202F09103021995FF91E0
:1013C000EF91BF91AF919F918F917F916F915F91BD
:1013D0004F913F912F910F900BBE0F900FBE0F902A
:1013E0001F9018951F920F920FB60F9211240BB6F3
:1013F0000F922F933F934F935F936F937F938F93AE
:101400009F93AF93BF93EF93FF93E0910002F0910E
:1014100001021995FF91EF91BF91AF919F918F912B
:101420007F916F915F914F913F912F910F900BBEE4
:101430000F900FBE0F901F9018951F920F920FB62E
:101440000F9211240BB60F922F933F934F935F93FC
:101450006F937F938F939F93AF93BF93EF93FF937C
:10146000E0910A02F0910B021995FF91EF91BF9163
:10147000AF919F918F917F916F915F914F913F912C
:101480002F910F900BBE0F900FBE0F901F901895CD
:101490001F920F920FB60F9211240BB60F922F933B
:1014A0003F934F935F936F937F938F939F93AF93EC
:1014B000BF93EF93FF93E0910802F0910902199511
:1014C000FF91EF91BF91AF919F918F917F916F911C
:1014D0005F914F913F912F910F900BBE0F900FBED8
:1014E0000F901F9018951F920F920FB60F92112414
:1014F0000BB60F922F933F934F935F936F937F930E
:101500008F939F93AF93BF93EF93FF93E091060266
:10151000F09107021995FF91EF91BF91AF919F91C3
:101520008F917F916F915F914F913F912F910F908C
:101530000BBE0F900FBE0F901F9018951F920F9229
:101540000FB60F9211240BB60F922F933F934F9328
:101550005F936F937F938F939F93AF93BF93EF931B
:10156000FF93E0910402F09105021995FF91EF912C
:10157000BF91AF919F918F917F916F915F914F91AB
:101580003F912F910F900BBE0F900FBE0F901F90A9
:1015900018958BBFFB0107900020E9F760957095C7
:1015A0006E0F7F1FCB010895FA016BBFDC01215044
:1015B000304030F08D910790801919F40020B9F770
:1015C000881B990B0895823021F08330A9F080E0C8
:1015D00008957093DB036093DA038CEA95E09093AF
:1015E00001028093000280916A008C7F8160809369
:1015F0006A00EC9A81E008957093DD036093DC0348
:1016000086EA95E0909303028093020280916A003B
:10161000837F846080936A00ED9AECCF0F931F93D1
:10162000CF93DF93EC01062F142F62E0802F0E94EE
:10163000DD0362E0812F0E94DD03802F90E0FC013A
:10164000EB53FD4FE491F0E0EE0FFF1FE555FD4F2A
:10165000A591B491B983A883FC01E55FFC4F249167
:101660002C83812F90E0FC01EB53FD4FE491F0E0DF
:10167000EE0FFF1FE555FD4F459154915B834A8363
:10168000FC01E55FFC4FE491ED831F82188619860B
:101690001A868BE39FE10197F1F78C91282391E063
:1016A00009F490E0DA018C91E82309F092609E83BE
:1016B000BE01802F0E94E30A8B87BE01812F0E940A
:1016C000E30A9B85890F8B87DF91CF911F910F9143
:1016D0000895CF93DF93E0E4F4E01382128284E96B
:1016E00092E09183808385EC90E09587848784ECF9
:1016F00090E09787868780EC90E0918B808B81ECDF
:1017000090E0938B828B82EC90E0958B848B86ECBF
:1017100090E0978B868B118E128E138E148EF09321
:10172000DE04E093DD0484EF91E0A0E0B0E0848388
:101730009583A683B783CAE3D4E08AE090E09D83D3
:101740008C8389E090E09B838A838CE090E099838E
:10175000888361E08AE00E94DD0361E08A810E9463
:10176000DD0361E088810E94DD03C4E3D4E087E00B
:1017700090E09D838C8386E090E09B838A8388E061
:1017800090E09983888361E087E00E94DD0361E057
:101790008A810E94DD0361E088810E94DD0343E0CD
:1017A00062E088E294E00E940E0B45E064E08CE188
:1017B00094E00E940E0BE6E1F4E0118210821382A5
:1017C00012821582148250E040E063EA72E0CF0199
:1017D0000E945008E0E1F4E011821082138212822C
:1017E0001582148250E040E063EA72E0CF01DF919D
:1017F000CF910C945008CF93DF9300D000D0CDB799
:10180000DEB7789484B5826084BD84B5816084BD80
:1018100085B5826085BD85B5816085BD80916E008E
:10182000816080936E0010928100809181008260BF
:1018300080938100809181008160809381008091FC
:1018400080008160809380008091B10084608093EB
:10185000B1008091B00081608093B00080919100D0
:1018600082608093910080919100816080939100CB
:10187000809190008160809390008091A1008260AF
:101880008093A1008091A10081608093A10080914C
:10189000A00081608093A0008091210182608093EC
:1018A000210180912101816080932101809120019B
:1018B00081608093200180917A00846080937A0017
:1018C00080917A00826080937A0080917A008160B2
:1018D00080937A0080917A00806880937A001092D9
:1018E000C10061E08BE00E94DD0362E083E10E94C1
:1018F000DD0362E082E10E94DD0368EC70E08BE0D2
:101900000E940E04F89410922F041092300410924A
:101910003104109232047894F894109223041092B7
:1019200024041092250410922604789484E394E011
:101930000E9430068AE394E00E94300684E394E03B
:101940000E941F068AE394E00E941F0663E08AE378
:1019500094E00E941A0663E084E394E00E941A0671
:101960006EEB72E08AE394E00E94540663EC72E04E
:1019700084E394E00E945406E0915004F0915104F5
:1019800082E08083E0914C04F0914D041082E0915C
:101990004E04F0914F0480E1808310925804E0914E
:1019A0005404F091550486E08083E0915204F09154
:1019B0005304808180618083E0915204F09153044C
:1019C000808188608083E0915204F091530480818B
:1019D00080688083E0915204F091530480818F7D70
:1019E000808389EC92E090931A06809319061092F6
:1019F000100610920F061092AC071092AB071092CF
:101A0000AE071092AD071092B0071092AF07109278
:101A1000DF0460EF73E08DED92E00E94510764EF08
:101A200073E081E193E00E9451070091AB071091B0
:101A3000AC07043611050CF040C084E290E00E942F
:101A40008319FC01D801AA0FBB1FA55EB94FED9306
:101A5000FC93178A168A8DE493E0958B848B81E042
:101A600090E09383828382E090E09583848386E094
:101A700094E0918F808F168E178E10A211A284E6AB
:101A800090E0A0E0B0E084879587A687B7871682AC
:101A900017821086118683E090E093A382A38FEFD4
:101AA0009FEF918380830F5F1F4F1093AC070093CC
:101AB000AB071092B0071092AF070091AD071091DD
:101AC000AE070436110584F580E190E00E94831989
:101AD000FC01000F111FD801AD51B94FED93FC93DC
:101AE0008FE892E095838483138212821386128694
:101AF00081E090E0958784878FEF9FEF91838083CB
:101B000082E190E09787868762E00E94DD03809102
:101B1000AD079091AE0701969093AE078093AD0705
:101B20001092B0071092AF0780E792E00E9416076C
:101B30009093FD038093FC038FE492E00E941607CC
:101B40009093FF038093FE038EE292E00E941607BB
:101B50009093F9038093F8038BE092E00E941607BC
:101B60009093FB038093FA0307E715E08091DD046F
:101B70009091DE04DC01ED91FC910084F185E02D73
:101B800019952091DF04892B81F02C3381F080910D
:101B9000DD049091DE04DC01ED91FC910284F3857B
:101BA000E02D19958093DF04E1CF2C33C9F5C09067
:101BB000DD04D090DE04B0EEAB2EB4E0BB2EF12CF1
:101BC000E12C0E943F05F601608771878287938729
:101BD000D601ED91FC910284F385E02DC6011995A3
:101BE00097FFDFC60E943F05F6014084518462845E
:101BF0007384641975098609970944805580668045
:101C00007780641575058605970510F3F0927605C3
:101C1000E0927505E114F10409F092C01092DF041E
:101C20008091AF079091B007892B09F46AC42DED1C
:101C3000422E24E0522E312C212C3EE3732E45E619
:101C4000642E8091AB079091AC07281639060CF4EE
:101C5000FAC293EEE92E96E0F92EB12CA12C8091D8
:101C6000AD079091AE07A816B9060CF04AC4D7018B
:101C7000ED91FC918081918197FD5BC00E943F05B1
:101C8000D701ED91FC91468057806084718464197E
:101C90007509860997096D3271408105910508F42F
:101CA00048C02685378537FD00C43327F901EF5A30
:101CB000FC4F8491F901E55FFC4FC490F901EB53AF
:101CC000FD4FD490DD2009F4E8C381110E94480340
:101CD000ED2DF0E0EE0FFF1FE555FD4FA591B491FE
:101CE000EC91CE2291E080E009F490E0C92ED82E4C
:101CF000D701ED91FC91848595858C159D05C9F0E2
:101D000060817181B1E0CB16D10409F0C9C38AE6C4
:101D100090E00E94DE070E943F05D701ED91FC9103
:101D20006683778380879187D701ED91FC91D58673
:101D3000C486BFEFAB1ABB0AE2E0EE0EF11C8FCFF8
:101D4000F701E352FB4F2EE32383F7013296F09322
:101D50007605E0937505E352FB4F12828091E00413
:101D6000813609F44FC074F4833309F497C0843387
:101D700009F4EBC0823309F051CF10921006109293
:101D80000F064CCF853609F4E1C1863611F1843651
:101D900009F044CFEBE1F6E090E080E02091AB0762
:101DA0003091AC07821793070CF038CFA191B19115
:101DB00012962D913C911397225031092230310512
:101DC00030F421E030E01B963C932E931A97019655
:101DD000E5CF2091AB073091AC07EBE1F6E090E066
:101DE00080E0821793070CF071C18436910509F4E5
:101DF0006DC1E190F190D7014D915C9157FDFCC010
:101E00000196EFCF8091190690911A060097C9F0BC
:101E10001F922F939F938F931F9280E38F931F9214
:101E20008CE38F9384E793E09F938F931F930F939B
:101E30000E94A71B0E94FD060FB6F894DEBF0FBEDE
:101E4000CDBF41E050E05093100640930F06EBE108
:101E5000F6E090E080E02091AB073091AC0782176C
:101E60009307A4F0E3EEF6E090E080E02091AD0768
:101E70003091AE07821793070CF0D0CEA191B191AB
:101E80004FEF5FEF4D935C930196F0CFA191B1912D
:101E90002FEF3FEF2D933C930196DDCFF12CE12CFA
:101EA0008091AB079091AC07E816F9060CF0B6CE1E
:101EB000F701EE0FFF1FE55EF94FC080D180D6011C
:101EC00054966D917C916115710501F1FB010190B2
:101ED0000020E9F73197AF01461B570B84EE94E0E1
:101EE0000E94991B892B71F4F601808191810196E2
:101EF00049F40E94FF07D6018D939C93E090AB07B5
:101F0000F090AC07FFEFEF1AFF0ACACFF601868800
:101F10009788092C000CAA08BB08C501B4010E94CF
:101F2000C90A9C01B501A40184EE94E00E94D40A80
:101F3000892B41F7D6018D919C91019619F70E944A
:101F4000FF07F60191838083D9CFF12CE12C80919A
:101F5000AD079091AE07E816F9060CF05FCEF701D9
:101F6000EE0FFF1FED51F94FC080D180D6011296C0
:101F70006D917C916115710501F1FB0101900020CB
:101F8000E9F73197AF01461B570B84EE94E00E94AE
:101F9000991B892B71F4F60180819181019649F496
:101FA0000E94FF07D6018D939C93E090AD07F090BF
:101FB000AE07FFEFEF1AFF0ACACFF60184809580C3
:101FC000092C000CAA08BB08C501B4010E94C90A6B
:101FD0009C01B501A40184EE94E00E94D40A892BEF
:101FE00041F7D6018D919C91019619F70E94FF0748
:101FF000F60191838083D9CFF701C488D5884680C4
:1020000057806084718420E030E048EC52E4C301E2
:10201000B2010E9494170E94DC18CB0164E670E0C4
:102020000E941219B82EA92EC301B2010E94DC1819
:10203000D70192962C91929793963C9193971296F2
:102040008C91129713969C911397C114D10419F196
:102050001F924EE34F93DF92CF92AF92BF927F9346
:102060006F933F932F939F938F931F9282E68F934B
:102070001F928CE38F938DE793E09F938F931F9331
:102080000F930E94A71B0FB6F894DEBF0FBECDBF03
:102090000E94FD06C3CD1F924EE34F9357964C917D
:1020A00057974F9356964C914F93AF92BF927F9311
:1020B0006F933F932F939F938F931F9282E68F93FB
:1020C0001F928CE38F9389E993E0D7CFA3EEB6E01C
:1020D00090E080E02091AD073091AE078217930722
:1020E0000CF06FC48436910509F46BC4ED91FD9139
:1020F0002081318137FD02C00196ECCF828193812E
:102100000097A1F01F922EE32F939F938F931F921E
:102110008DE68F931F928CE38F9384E793E09F93D8
:102120008F931F930F930E94A71BADCF1F928EE337
:102130008F9385818F9384818F931F928DE68F93E8
:102140001F928CE38F9385EB93E0E9CF0E94FF070A
:102150005C0190E080E02091AB073091AC078217E2
:1021600093070CF05BCD7C015FE9E50EF11C970154
:10217000220F331FD901A352BB4F6D01ED91FC918A
:1021800020813181A216B30609F05BC02281338120
:102190002D7F2130310509F054C08481958101974C
:1021A000F9F4808C918C7090EE041092EE0484EE21
:1021B00094E00E942A15F4016083718382839383E3
:1021C0007092EE04D601ED91FC91A08DB18D8D91B0
:1021D0009D910D90BC91A02D828F938FA48FB58F70
:1021E000EE0CFF1CF701E352FB4F7F010190F081E1
:1021F000E02D84819581029701F5C08CD18C90905F
:10220000EE041092EE0484EE94E00E940815D601CC
:102210006D937D938D939C9313979092EE04D701C9
:10222000ED91FC91A08DB18D8D919D910D90BC9102
:10223000A02D868F978FA0A3B1A38091AB0790911B
:10224000AC07019688CF720132ECE31A3EEFF30A35
:10225000D701ED91FC918081918197FD0DC0828124
:1022600093810297029740F4848195818130910592
:1022700051F0029709F47FC0BFEF2B1A3B0AE2E04E
:102280004E0E511CDECCA08DB18D4D915D916D91A6
:102290007C91828D938DA48DB58D481759076A075F
:1022A0007B0751F30E943F05D701ED91FC91808897
:1022B0009188A288B388AB01BC01481959096A0901
:1022C0007B0984859585A685B78521E0892B8A2B96
:1022D0008B2B29F482859385892B09F420E0822FAA
:1022E00090E0B0E0A0E084179507A607B70720F6B6
:1022F0008081918197FD1FC01F927F92008CF18D8C
:10230000E02D21812F9320812F939F938F931F92F4
:102310006F921F92BCE3BF93E4EAF2E0FF93EF9366
:102320001F930F930E94A71B0E94FD060FB6F894FF
:10233000DEBF0FBECDBFD701ED91FC91A08DB18D59
:102340008D919D910D90BC91A02D828F938FA48F24
:10235000B58FF701C080D1800E943F05D60150960D
:102360006D937D938D939C935397D701ED91FC9141
:102370001386128681CFA08DB18D268D378D40A119
:1023800051A16D917D918D919C910E942E1781118B
:102390006CC0D701ED91FC9182859385892B09F45E
:1023A0006BCFD701ED91FC91C080D180D7FC4EC09E
:1023B000008CF18DE02D80809180A280B3801F92EF
:1023C0007F9220E030E048EC52E4C501B4010E9465
:1023D00094170E94DC18CB0164E670E00E94121989
:1023E00097FF03C09195819591099F938F93C501A4
:1023F000B4010E94DC189B0177FF04C02227332719
:10240000261B370B3F932F93DF92CF921F926F9231
:102410001F92BCE3BF93EEEBF3E0FF93EF931F93A8
:102420000F930E94A71B0FB6F894DEBF0FBECDBF5F
:1024300020E030E0A901C501B4010E942E1787FFFA
:1024400003C05DE250937C050E94FD06D701ED912B
:10245000FC91A08DB18D8D919D910D90BC91A02D81
:10246000868F978FA0A3B1A374CF0E943F05D70199
:10247000ED91FC9180889188A288B38868197909C8
:102480008A099B0984849584A684B7848616970656
:10249000A806B90608F07DCF84CFD12CC12C28CC5A
:1024A00089E690E00E94DE073FCCA285B3851097B5
:1024B00009F43FCC8D919C91248535858217930733
:1024C00009F437CC6081718118161906BCF48AE6CC
:1024D00090E00E94DE07D701ED91FC91A285B385C3
:1024E0008D919C91958784870E943F05D701ED913E
:1024F000FC9166837783808791871BCC89E690E087
:10250000E8CF8091AF079091B007892B09F438C2CA
:1025100080911C0290911D02892B09F443C01092F6
:102520000F0410920E04E0900E04F0900F04FFEFE1
:10253000EF16F10409F074F4B7018BE00E940E0469
:102540000E940A052FEFE21AF20AF0920F04E092BD
:102550000E04E9CF8FEF90E090930F0480930E0468
:10256000E0900E04F0900F04F7FC0EC0B7018BE072
:102570000E940E040E940A0531E0E31AF108F0926D
:102580000F04E0920E04ECCF63E08AE394E00E9433
:102590001A0663E084E394E00E941A0610921D027A
:1025A00010921C02C0900604D0900704E09008042A
:1025B000F0900904A701960160910A0470910B0440
:1025C00080910C0490910D040E942E17882309F429
:1025D00045C020E030E04FE753E4C701B6010E9458
:1025E000941720E030E0A9010E9470180E94DC18C6
:1025F0008BE00E940E0420E030E040E450E4609163
:1026000006047091070480910804909109040E94C7
:10261000941720E030E0A9010E9470180E94DC1895
:10262000F62E60930404709305048AE394E00E94FC
:102630001A066F2D84E394E00E941A068091060426
:1026400090910704A0910804B091090480930A04B2
:1026500090930B04A0930C04B0930D048091330469
:10266000823008F090C1F89488E294E00E944C0512
:1026700060912F0470913004809131049091320464
:10268000789422E030E040E050E00E942619309338
:1026900003042093020480912704823008F075C15E
:1026A000F8948CE194E00E944C05609123047091B1
:1026B00024048091250490912604789422E030E04F
:1026C00040E050E00E94261930930104209300045A
:1026D000209102043091030480911A0290911B0210
:1026E0002817390791F0821793070CF050C1809199
:1026F000FE039091FF030E94A8078091020490912D
:10270000030490931B0280931A02209100043091DD
:10271000010480911802909119022817390791F04D
:10272000821793070CF038C18091FA039091FB0354
:102730000E94A807809100049091010490931902CF
:10274000809318024091F4035091F5036091F603D1
:102750007091F7038091140290911502A0911602D6
:10276000B0911702481759076A077B0709F479C027
:10277000CE0101960E948F08BE016F5F7F4F86E1F8
:1027800094E00E941708CE0101960E940F0870E0A5
:1027900060E086E194E00E94010220E0DC014C91BF
:1027A00065E070E084E394E00E94F80561E070E089
:1027B00086E194E00E94010220E0FC01408164E097
:1027C00070E084E394E00E94F80562E070E086E146
:1027D00094E00E94010221E0DC014C9163E070E092
:1027E00084E394E00E94F80563E070E086E194E001
:1027F0000E94010220E0FC01408162E070E084E37D
:1028000094E00E94F80564E070E086E194E00E94A4
:10281000010220E0DC014C9161E070E084E394E08F
:102820000E94F80565E070E086E194E00E940102F4
:1028300020E0FC01408170E060E084E394E00E94CD
:10284000F8058091F4039091F503A091F603B091FF
:10285000F7038093140290931502A0931602B0938D
:1028600017024091F0035091F1036091F2037091CF
:10287000F3038091100290911102A0911202B09185
:102880001302481759076A077B0709F479C0CE017C
:1028900001960E948F08BE016F5F7F4F80E194E038
:1028A0000E941708CE0101960E940F0870E060E0B8
:1028B00080E194E00E94010220E0DC014C9165E09F
:1028C00070E08AE394E00E94F80561E070E080E146
:1028D00094E00E94010220E0FC01408164E070E08D
:1028E0008AE394E00E94F80562E070E080E194E001
:1028F0000E94010221E0DC014C9163E070E08AE378
:1029000094E00E94F80563E070E080E194E00E94AA
:10291000010220E0FC01408162E070E08AE394E083
:102920000E94F80564E070E080E194E00E940102FA
:1029300020E0DC014C9161E070E08AE394E00E94C9
:10294000F80565E070E080E194E00E94010220E07B
:10295000FC01408170E060E08AE394E00E94F805A9
:102960008091F0039091F103A091F203B091F303F1
:102970008093100290931102A0931202B09313025D
:102980000E941703F3C8F89473CEF8948ECE80910A
:10299000FC039091FD03AFCE8091F8039091F90371
:1029A000C7CE8E33910509F431C9D5018D935D01F0
:1029B000BFEFEB1AFB0AE5E9EE16F10409F001C9D5
:1029C00025C921E030E03093B0072093AF071F9274
:1029D0008EE38F931F9283E68F931F928CE38F93E6
:1029E00083ED93E09F938F931F930F930E94A71BF8
:1029F0000E94FD060FB6F894DEBF0FBECDBF0EC914
:102A000080E194E00E940F0886E194E00C940F08A6
:102A1000662777270C949F15FC0188279927E8944F
:102A200021912032E9F3293010F02E30C8F32B32F7
:102A300041F02D3239F4689404C00E947515820F5C
:102A4000911D219120532A30C0F31EF49095819559
:102A50009F4F08951F93FC0199278827BC01E89494
:102A600011911032E9F3193010F01E30C8F31B3207
:102A700051F01D3249F4689406C00E946015610F40
:102A8000711D811D911D119110531A30B0F33EF448
:102A900090958095709561957F4F8F4F9F4F1F91B7
:102AA0000895BB272A3051F4992342F4BDE2909552
:102AB0008095709561957F4F8F4F9F4F0C947E1539
:102AC000592F482F372F262F660F771F881F991FE2
:102AD000660F771F881F991F620F731F841F951F32
:102AE000660F771F881F991F08957AE0979F902D92
:102AF000879F802D910D11240895BB27FA01A62FE1
:102B00006217710581059105330B30FB66F0AA272A
:102B1000660F771F881F991FAA1FA21710F0A21B0C
:102B200063953850A9F7A05DAA3308F0A95DA19379
:102B300036F7B111B1931082CA010C941E178F920F
:102B40009F92AF92BF92CF92DF92EF92FF920F933C
:102B50001F93CF93DF935C017B016115710519F021
:102B6000DB018D939C9385010F5F1F4FF501D08191
:102B70008D2F90E00E94FD166C01892BB9F5DD3296
:102B8000B9F50F5F1F4FD5011196DC91C1E05801D7
:102B9000F1E0AF1AB10843E050E064EA71E0C5012A
:102BA0000E940617892B69F5680182E0C80ED11CC6
:102BB00045E050E06FE971E0C6010E940617892BDD
:102BC00021F4680197E0C90ED11CE114F10419F059
:102BD000D701CD92DC9260E070E080E89FEFC111F8
:102BE000FFC060E070E080E89FE7FAC05801BBCF0B
:102BF000DB3229F485010E5F1F4FF501D181C0E062
:102C0000C6CF43E050E06CE971E0C5010E940617B1
:102C1000892BE9F0F80110E000E020E030E0A901A4
:102C20005F01B0ED8B2E8D0E89E08815C8F19C2ECA
:102C3000689491F88C2F8870C2FF16C0811102C071
:102C40000F5F1F4F3196D501DC91C92DE9CFE114FB
:102C5000F10429F00E5F1F4FF7011183008360E03C
:102C600070E080EC9FE7BCC0882311F0015011098F
:102C7000A5E0B0E00E9455189B01AC01220F331F64
:102C8000441F551F280D311D411D511D283999E93B
:102C90003907490799E15907A8F2C6609C2ED2CF9F
:102CA000AEEF8A1206C0C3FD3CC09C2E689493F818
:102CB000C9CFDF7DD534A9F580818D3239F4C0616B
:102CC000DF011296818162E070E006C0DF018B3285
:102CD000C1F3119661E070E080535D01A61AB70A56
:102CE0008A30F8F4E0E8CE16ECE0DE065CF4B601DB
:102CF000660F771F660F771FC60ED71ECC0CDD1C24
:102D0000C80ED11C5D01FFEFAF1ABF0A8C91805332
:102D10008A30A8F1C4FF03C0D194C194D1080C0D2E
:102D20001D1DC1FF09C0E114F10431F081E0A81AB2
:102D3000B108D701AD92BC92CA01B9010E94331704
:102D4000C370C33009F490584B015C0120E030E0BF
:102D5000A9010E942E17882309F440C0C3EDD1E0D9
:102D600017FF05C0119501951109CBEBD1E06E015C
:102D7000B8E1CB1AD10880E2E82EF12C0FC0D501C2
:102D8000B1CFFE0125913591459154910E191F093E
:102D9000C501B4010E9494174B015C01D501C40127
:102DA0000E151F0574F72497F594E794CC16DD06ED
:102DB000A9F78A2F880F8B2F881F8F3F49F020E0BB
:102DC00030E0A901C501B4010E942E17811106C08F
:102DD00082E290E09093B2078093B107C501B401FD
:102DE000DF91CF911F910F91FF90EF90DF90CF90E7
:102DF000BF90AF909F908F90089591110C940118FF
:102E0000803219F089508550C8F70895FB01DC0124
:102E10004150504088F08D9181341CF08B350CF47A
:102E2000805E659161341CF06B350CF4605E861B2E
:102E3000611171F3990B0895881BFCCFDC01FC0133
:102E4000672F71917723E1F7329704C07C916D93DE
:102E500070836291AE17BF07C8F308950E94701780
:102E600008F481E00895E89409C097FB3EF490953A
:102E70008095709561957F4F8F4F9F4F9923A9F053
:102E8000F92F96E9BB279395F695879577956795E2
:102E9000B795F111F8CFFAF4BB0F11F460FF1BC026
:102EA0006F5F7F4F8F4F9F4F16C0882311F096E9B9
:102EB00011C0772321F09EE8872F762F05C0662367
:102EC00071F096E8862F70E060E02AF09A95660F20
:102ED000771F881FDAF7880F9695879597F90895D9
:102EE000990F0008550FAA0BE0E8FEEF161617061B
:102EF000E807F907C0F012161306E407F50798F083
:102F0000621B730B840B950B39F40A2661F0232B9B
:102F1000242B252B21F408950A2609F4A140A69517
:102F20008FEF811D811D08950E94A7170C941B1817
:102F30000E940D1838F00E94141820F0952311F00B
:102F40000C9404180C940A1811240C944F180E9425
:102F50002C1870F3959FC1F3950F50E0551F629F99
:102F6000F001729FBB27F00DB11D639FAA27F00DE2
:102F7000B11DAA1F649F6627B00DA11D661F829F09
:102F80002227B00DA11D621F739FB00DA11D621FEE
:102F9000839FA00D611D221F749F3327A00D611D0B
:102FA000231F849F600D211D822F762F6A2F1124ED
:102FB0009F5750409AF0F1F088234AF0EE0FFF1F20
:102FC000BB1F661F771F881F91505040A9F79E3F77
:102FD000510580F00C9404180C944F185F3FE4F3F3
:102FE000983ED4F3869577956795B795F795E795CD
:102FF0009F5FC1F7FE2B880F911D9695879597F9D6
:10300000089599278827089597F99F6780E870E0C9
:1030100060E008959FEF80EC089500240A9416164E
:10302000170618060906089500240A9412161306B6
:10303000140605060895092E0394000C11F4882344
:1030400052F0BB0F40F4BF2B11F460FF04C06F5F60
:103050007F4F8F4F9F4F089557FD9058440F551F36
:1030600059F05F3F71F04795880F97FB991F61F00A
:103070009F3F79F087950895121613061406551F81
:10308000F2CF4695F1DF08C0161617061806991FED
:10309000F1CF86957105610508940895E894BB27E2
:1030A00066277727CB0197F908950E946018A59F9E
:1030B000900DB49F900DA49F800D911D1124089533
:1030C000A29FB001B39FC001A39F700D811D112469
:1030D000911DB29F700D811D1124911D08955058AE
:1030E000BB27AA270E9487180C941B180E940D1852
:1030F00038F00E94141820F039F49F3F19F426F498
:103100000C940A180EF4E095E7FB0C940418E92FD0
:103110000E942C1858F3BA176207730784079507A3
:1031200020F079F4A6F50C944E180EF4E0950B2ED1
:10313000BA2FA02D0B01B90190010C01CA01A00109
:103140001124FF27591B99F0593F50F4503E68F164
:103150001A16F040A22F232F342F4427585FF3CFA5
:10316000469537952795A795F0405395C9F77EF476
:103170001F16BA0B620B730B840BBAF09150A1F0BF
:10318000FF0FBB1F661F771F881FC2F70EC0BA0F45
:10319000621F731F841F48F4879577956795B795CD
:1031A000F7959E3F08F0B0CF9395880F08F09927C8
:1031B000EE0F9795879508950E94E3186894B111D2
:1031C0000C944F1808950E94341888F09F5798F077
:1031D000B92F9927B751B0F0E1F0660F771F881F1C
:1031E000991F1AF0BA95C9F714C0B13091F00E9436
:1031F0004E18B1E008950C944E18672F782F882749
:10320000B85F39F0B93FCCF3869577956795B3955C
:10321000D9F73EF490958095709561957F4F8F4FCB
:103220009F4F089597FB072E16F4009407D077FD63
:1032300009D00E944D1907FC05D03EF49095819568
:103240009F4F0895709561957F4F0895052E97FBC8
:103250001EF400940E943D1957FD07D00E94611989
:1032600007FC03D04EF40C943D19509540953095D1
:1032700021953F4F4F4F5F4F0895909580957095E2
:1032800061957F4F8F4F9F4F0895EE0FFF1F881F4F
:103290008BBF0790F691E02D1994AA1BBB1B51E13F
:1032A00007C0AA1FBB1FA617B70710F0A61BB70BB6
:1032B000881F991F5A95A9F780959095BC01CD015B
:1032C0000895A1E21A2EAA1BBB1BFD010DC0AA1F67
:1032D000BB1FEE1FFF1FA217B307E407F50720F07F
:1032E000A21BB30BE40BF50B661F771F881F991FFA
:1032F0001A9469F760957095809590959B01AC0143
:10330000BD01CF0108950F931F93CF93DF938230B8
:10331000910510F482E090E0E091B507F091B607D6
:1033200030E020E0B0E0A0E0309799F421153105BD
:1033300009F44AC0281B390B24303105D8F58A819D
:103340009B816115710589F1FB0193838283FE01E5
:1033500011C0408151810281138148175907E0F063
:103360004817590799F4109761F012960C93129729
:1033700013961C933296CF01DF91CF911F910F913D
:1033800008950093B5071093B607F4CF21153105C2
:1033900051F04217530738F0A901DB019A01BD0132
:1033A000DF01F801C1CFEF01F9CF9093B607809309
:1033B000B507CDCFFE01E20FF31F81939193225009
:1033C000310939832883D7CF2091B3073091B407CF
:1033D000232B41F420912002309121023093B40735
:1033E0002093B30720911E0230911F022115310551
:1033F00041F42DB73EB74091220250912302241B85
:10340000350BE091B307F091B407E217F307A0F48E
:103410002E1B3F0B2817390778F0AC014E5F5F4F2A
:103420002417350748F04E0F5F1F5093B4074093A1
:10343000B307819391939FCFF0E0E0E09CCFCF93CF
:10344000DF930097E9F0FC01329713821282A0917A
:10345000B507B091B607ED0130E020E01097A1F478
:1034600020813181820F931F2091B3073091B407DF
:103470002817390709F061C0F093B407E093B30748
:10348000DF91CF910895EA01CE17DF07E8F54A8171
:103490005B819E0141155105B1F7E901FB83EA8388
:1034A00049915991C40FD51FEC17FD0761F4808134
:1034B00091810296840F951FE90199838883828107
:1034C00093819B838A83F0E0E0E012968D919C913A
:1034D00013970097B9F52D913C911197CD01029664
:1034E000820F931F2091B3073091B4072817390733
:1034F00039F6309751F51092B6071092B507B09390
:10350000B407A093B307BCCFD383C283408151815A
:10351000840F951FC817D90761F44E5F5F4F8881EC
:103520009981480F591F518340838A819B819383DE
:1035300082832115310509F0B0CFF093B607E093EF
:10354000B5079ECFFD01DC01C0CF13821282D7CF19
:103550004F925F926F927F928F929F92AF92BF92A3
:10356000CF92DF92EF92FF920F931F93CF93DF934F
:103570008C01009799F4CB01DF91CF911F910F91AE
:10358000FF90EF90DF90CF90BF90AF909F908F9083
:103590007F906F905F904F900C948319FC01E60F21
:1035A000F71F9C0122503109E217F30708F4AEC05F
:1035B000D901CD91DC911197C617D70720F1C530FD
:1035C000D10578F0CE0104978617970750F0C61BF7
:1035D000D70B2297C193D1936D937C93CF010E9417
:1035E0001F1AC801DF91CF911F910F91FF90EF90AB
:1035F000DF90CF90BF90AF909F908F907F906F9013
:103600005F904F9008955B01AC1ABD0A4C018C0E7F
:103610009D1EA091B507B091B607512C412CF12CFD
:10362000E12C109731F58091B3079091B40788157C
:10363000990509F05CC04616570608F058C08091FD
:103640001E0290911F02009741F48DB79EB74091E2
:10365000220250912302841B950BE817F90708F00A
:1036600055C0F093B407E093B307F9017183608309
:10367000B8CF8D919C91119712966C9012971396DA
:103680007C901397A815B90559F56C0142E0C40E5A
:10369000D11CCA14DB0420F1AC014A195B09DA0120
:1036A0001296159780F06282738251834083D9010C
:1036B0006D937C93E114F10471F0D7011396FC93A0
:1036C000EE9312978ECF22968C0F9D1FF901918356
:1036D0008083F301EFCFF093B607E093B50781CF76
:1036E0004816590608F42C017D01D3019ACFCB016D
:1036F0000E9483197C01009749F0AE01B8010E9435
:10370000891BC8010E941F1A87016BCF10E000E0DF
:1037100068CFFB01DC0102C001900D924150504086
:10372000D8F70895FB01DC0101900D920020E1F72C
:103730000895FB01DC014150504030F08D91019023
:10374000801919F40020B9F7881B990B08950F937D
:103750001F93CF93DF93CDB7DEB72E970FB6F894B4
:10376000DEBF0FBECDBF0E891F8986E08C831A8312
:1037700009838FEF9FE79E838D83AE01465E5F4F87
:10378000688D798DCE0101960E94D71B2F813885D7
:10379000020F131FF80110822E960FB6F894DEBFA9
:1037A0000FBECDBFDF91CF911F910F9108952F9242
:1037B0003F924F925F926F927F928F929F92AF92C1
:1037C000BF92CF92DF92EF92FF920F931F93CF930E
:1037D000DF9300D000D000D01F921F92CDB7DEB78C
:1037E0007C013B018A01FC0117821682838181FFE3
:1037F000DDC1CE0101965C01F7019381F30193FDD8
:10380000859193FF81913F01882309F453C185324B
:1038100039F493FD859193FF81913F01853229F41D
:10382000B70190E00E94EF1DE7CF912C212C312CA5
:10383000FFE1F31538F08B3211F190F4803209F189
:10384000833229F137FC3CC020ED280F2A3050F597
:1038500036FE20C08AE0989E200D1124922E06C0CC
:103860008D3291F0803371F7689430F8F30193FD55
:10387000859193FF81913F018111DACF21C0689436
:1038800031F8689432F8F2CF689433F8EFCF689447
:1038900034F8ECCFEAE02E9E200D1124222E6894FD
:1038A00035F8E4CF8E3229F436FC04C1689436F83A
:1038B000DDCF8C3619F4689437F8D8CF8836B1F25A
:1038C000982F9F7D95549330E0F08336A1F1833794
:1038D000C1F1833509F063C02801F2E04F0E511C9D
:1038E000F801C080D180692D70E036FC02C06FEF16
:1038F0007FEFC6010E94D91D4C01689437F8820100
:103900000AC00C5F1F4FFFE3F98388248394912C36
:103910006501E89437F833FE2DC0522C81149104D0
:1039200071F5552009F468CFB70180E290E00E945C
:10393000EF1D5A94F6CFF801808189830E5F1F4FE7
:10394000E4CF2801F2E04F0E511CF801C080D18075
:10395000692D70E036FC02C06FEF7FEFC6010E9458
:10396000E41D4C018201D5CFB70180E290E00E94B6
:10397000EF1D2A942814190409F0B0F7CECFF601F0
:1039800037FC859137FE81916F01B70190E00E946D
:10399000EF1D51105A94F1E08F1A9108BFCF843671
:1039A00019F0893609F077C0F80137FE6BC06081E5
:1039B0007181828193810C5F1F4FF32DFF763F2E23
:1039C00097FF09C090958095709561957F4F8F4FB7
:1039D0009F4F689437F82AE030E0A5010E941F1E2F
:1039E000C82ECA188C2C432C36FE0CC0E89440F824
:1039F000C91440F434FE05C032FC03C0F32DFE7E32
:103A00004F2E892C44FEAAC0FE01EC0DF11D8081D1
:103A1000803309F09CC0242D297E422E842D88708D
:103A2000582E43FCAAC040FEA4C09C2C821418F45B
:103A30002C0C922C981844FEA6C0B70180E390E0AD
:103A40000E94EF1D42FE09C088E790E041FE02C0DF
:103A500088E590E0B7010E94EF1DC91408F49FC0EB
:103A6000CA94D12C9FEFC91AD90ACA0CDB1CF601E3
:103A700082916F01B70190E00E94EF1DAC14BD046C
:103A8000B1F74FCF60817181072E000C880B990B25
:103A90000E5F1F4F92CFD32CE894D4F82AE030E089
:103AA0008537E1F1232D297FD22E8F36A9F1F0F44D
:103AB000883551F1F701868197812B960FB6F894DE
:103AC000DEBF0FBECDBFDF91CF911F910F91FF9051
:103AD000EF90DF90CF90BF90AF909F908F907F90AE
:103AE0006F905F904F903F902F900895803749F0EE
:103AF000883701F7D4FE02C06894D2F820E130E0A4
:103B00000DC06894D4F8F6CF34FE03C0822F8660CF
:103B1000D82E20E132E002C028E030E0F801D7FEE4
:103B20000FC060817181828193810C5F1F4FA5015D
:103B30000E941F1EC82ECA183D2CE89437F852CF99
:103B40006081718190E080E00E5F1F4FF0CF42FCFA
:103B500002C0839463CF8394839460CF842D86784E
:103B600009F45CCFF6CFB70180E290E00E94EF1D30
:103B700083948214C0F3512C5ECF522C58188214B7
:103B800008F459CFF8CF842D867809F466CF8BE2FC
:103B900041FE80E247FC8DE2B70190E05CCFB701C7
:103BA00080E390E00E94EF1D9A9457CF8FEF9FEF34
:103BB00084CFFC010590615070400110D8F78095CA
:103BC00090958E0F9F1F0895FC01615070400190E9
:103BD0000110D8F7809590958E0F9F1F08950F9331
:103BE0001F93CF93DF93182F092FEB018B8181FD5A
:103BF00009C01FEF0FEF812F902FDF91CF911F9101
:103C00000F91089582FF14C02E813F818C819D8188
:103C1000281739073CF4E881F981CF01019699838F
:103C2000888310838E819F8101969F838E83E3CF4B
:103C3000E885F985812F1995892BA1F3DACFFA014F
:103C4000AA27283051F1203181F1E8946F936E7FDB
:103C50006E5F7F4F8F4F9F4FAF4FB1E03ED0B4E0CC
:103C60003CD0670F781F891F9A1FA11D680F791F0D
:103C70008A1F911DA11D6A0F711D811D911DA11D1E
:103C800020D009F468943F912AE0269F112430192E
:103C9000305D3193DEF6CF010895462F4770405DC9
:103CA0004193B3E00FD0C9F7F6CF462F4F70405D78
:103CB0004A3318F0495D31FD4052419302D0A9F7D3
:103CC000EACFB4E0A6959795879577956795BA95CD
:103CD000C9F700976105710508959B01AC010A2E93
:103CE00006945795479537952795BA95C9F7620F6A
:103CF000731F841F951FA01D089511E0CDECD1E026
:103D000000E006C0802FFE010E9445192196011D8A
:0E3D1000CE3CD10780E00807A9F7F894FFCF5A
:103D1E004B054B054B054B054B054B054B054B0515
:103D2E00FFFFFFFFFFFFFFFFFFFFFFFF0100000090
:103D3E00B70780004177427F434E447E454F46474A
:103D4E00475E483749304A3C4C0E4E764F7E5067A0
:103D5E005205535B540F553E59275B4E5D785F08F5
:103D6E006177621F630D643D654F6647675E681736
:103D7E0069106A3C6C0E6E156F7E70677205735B10
:103D8E00740F751C79272D012000307E3130326D75
:103D9E0033793433355B365F3770387F397B30009B
:103DAE0000000000AA0214024102F7027202500241
:103DBE00640220002563256325332E33692569258A
:103DCE0063002563256325332E3369256300434F36
:103DDE00524500726561647900434F52452043504D
:103DEE005420434F4D4D2050414E454C0073696D4C
:103DFE002F636F636B706974322F726164696F73B6
:103E0E002F6163747561746F72732F636F6D315FA1
:103E1E006672657175656E63795F687A5F38333384
:103E2E000073696D2F636F636B706974322F7261EB
:103E3E0064696F732F6163747561746F72732F632E
:103E4E006F6D315F7374616E6462795F66726571F6
:103E5E0075656E63795F687A5F383333006C616DB8
:103E6E00696E61722F423733382F656C65637472D9
:103E7E0069632F70616E656C5F6272696768746EDC
:103E8E0065737300256325632573256300256325FC
:103E9E006325312E316925322E3269253035692E52
:103EAE002530326925732563002563256325312E60
:103EBE00316925322E3269253035692E2530326929
:103ECE00255325630025632563255325630025634C
:103EDE00256325332E3369253037692E2530326917
:0A3EEE0025630025632563256300AA
:00000001FF
